:020000040000FA
:100000000C94AB000C94D3000C94D3000C94D3004C
:100010000C94D3000C94D3000C94D3000C94D30014
:100020000C94D3000C94D3000C94D3000C94D30004
:100030000C94D3000C94D3000C94D3000C94D300F4
:100040000C94680C0C94D3000C94D80C0C94B20C47
:100050000C94D3000C94D3000C94D3000C94D300D4
:100060000C94D3000C94D30052657475726E696E53
:100070006720746F2050726576696F7573204D6FBD
:100080006465204661696C7572652E2E2E0053657D
:100090007474696E6720426175647261746520537F
:1000A00075636365737366756C2100456E74657264
:1000B000696E6720436F6E66696775726174696FF8
:1000C0006E204D6F64652053756363657373667549
:1000D0006C2100456E746572696E6720436F6E66B1
:1000E000696775726174696F6E204D6F6465204633
:1000F00061696C7572652E2E2E00000000002400D0
:1001000027002A0000000000250028002B00000026
:10011000000023002600290004040404040404044D
:1001200002020202020203030303030301020408A2
:100130001020408001020408102001020408102051
:100140000000000800020100000304070000000096
:10015000000000000A0D11241FBECFEFD8E0DEBF63
:10016000CDBF11E0A0E0B1E0EAECF3E302C00590FE
:100170000D92AE33B107D9F723E0AEE3B1E001C091
:100180001D92A436B207E1F710E0CBEAD0E004C03C
:100190002197FE010E946617CA3AD107C9F70E944B
:1001A000810E0C94E3190C9400008F929F92AF92F1
:1001B000BF92CF92DF92EF92FF920F931F93CF9354
:1001C000DF938B01D82FC92F9B01482F592F6091A6
:1001D00020037091210380912203909123030E94B8
:1001E0005415882309F43EC0809024039090250381
:1001F000A0902603B090270375016401F7FAF094EC
:10020000F7F8F094A7019601B8018D2F9C2F0E945A
:10021000541587FD0EC0A5019401B8018D2F9C2FA8
:100220000E94B3167501640118161CF06801ED2ECA
:10023000FC2E20E030E0A901C701B6010E94541550
:1002400081111DC010920B0310920C0310920D032C
:1002500010920E03C0922003D0922103E092220359
:10026000F0922303DF91CF911F910F91FF90EF90B8
:10027000DF90CF90BF90AF909F908F900895A7018F
:10028000960160E074E284E799E40E9459159F7733
:100290000E94D21560930B0370930C0380930D039F
:1002A00090930E03C1E020E030E0A901C701B60140
:1002B0000E94B31618160CF0C0E0C0930A03CACF10
:1002C0008CBD9DBD0895FC01538D448D252F30E0DC
:1002D000842F90E0821B930B541710F0CF96089553
:1002E00001970895FC01918D828D981761F0A28D80
:1002F000AE0FBF2FB11D5D968C91928D9F5F9F7346
:10030000928F90E008958FEF9FEF0895FC01918DFB
:10031000828D981731F0828DE80FF11D858D90E068
:1003200008958FEF9FEF0895FC01918D228D892F05
:1003300090E0805C9F4F821B91098F7399270895ED
:10034000FC01A48DA80FB92FB11DA35ABF4F2C914A
:10035000848D90E001968F739927848FA689B78941
:100360002C93A089B1898C91837080648C93938D38
:10037000848D981306C00288F389E02D80818F7DDB
:1003800080830895EF92FF920F931F93CF93DF9393
:10039000EC0181E0888F9B8D8C8D98131AC0E889C1
:1003A000F989808185FF15C09FB7F894EE89FF8990
:1003B0006083E889F98980818370806480839FBF2E
:1003C00081E090E0DF91CF911F910F91FF90EF902E
:1003D0000895F62E0B8D10E00F5F1F4F0F7311273E
:1003E000E02E8C8D8E110CC00FB607FCFACFE88979
:1003F000F989808185FFF5CFCE010E94A001F1CF60
:10040000EB8DEC0FFD2FF11DE35AFF4FF0829FB7EC
:10041000F8940B8FEA89FB8980818062CFCFCF93DC
:10042000DF93EC01888D8823B9F0AA89BB89E8891C
:10043000F9898C9185FD03C0808186FD0DC00FB6C2
:1004400007FCF7CF8C9185FFF2CF808185FFEDCF40
:10045000CE010E94A001E9CFDF91CF9108958AE6F5
:1004600092E00E94940121E0892B09F420E0822F80
:10047000089580E090E0892B29F00E942F028111DD
:100480000C9400000895833081F028F4813099F0B5
:100490008230A9F008958730A9F08830C9F08430FF
:1004A000B1F4809180008F7D03C0809180008F77B0
:1004B00080938000089584B58F7784BD089584B5B6
:1004C0008F7DFBCF8091B0008F778093B00008952F
:1004D0008091B0008F7DF9CFCF93DF93E3E4F1E01B
:1004E0008491EFE2F1E0D491EBE1F1E0C491CC230F
:1004F000A1F081110E944302EC2FF0E0EE0FFF1FEC
:10050000E25FFE4FA591B491EC91ED2381E090E084
:1005100009F480E0DF91CF91089580E090E0FACF78
:100520001F93CF93DF93282F30E0F901E05CFE4F5B
:100530008491F901E45DFE4FD491F901E85EFE4F2C
:10054000C491CC23A9F0162F81110E944302EC2FF5
:10055000F0E0EE0FFF1FEC5FFE4FA591B4918FB757
:10056000F894EC91111108C0D095DE23DC938FBF75
:10057000DF91CF911F910895DE2BF8CFCF93DF93BA
:1005800090E0FC01E45DFE4F2491885E9E4FFC01EB
:1005900084918823D1F090E0880F991FFC01E650E8
:1005A000FF4FA591B491FC01EC5FFE4FC591D49132
:1005B000623071F49FB7F8943C91822F8095832329
:1005C0008C93E8812E2B28839FBFDF91CF910895D4
:1005D0008FB7F894EC912E2B2C938FBFF6CF3FB7AB
:1005E000F8948091620290916302A0916402B091AC
:1005F000650226B5A89B05C02F3F19F00196A11DE5
:10060000B11D3FBFBA2FA92F982F8827BC01CD015C
:10061000620F711D811D911D42E0660F771F881FBB
:10062000991F4A95D1F70895AF92BF92CF92DF926A
:10063000EF92FF920F931F93CF93DF936C017B0197
:100640008B01040F151FEB015E01AE18BF08C01728
:10065000D10759F06991D601ED91FC910190F0819B
:10066000E02DC6010995892B79F7C501DF91CF915E
:100670001F910F91FF90EF90DF90CF90BF90AF90C0
:1006800008950F931F93CF93DF938C01D0E0C0E0C8
:10069000F801EC0FFD1F6491662341F08AE692E0B9
:1006A0000E94C201892B11F02196F2CF42E050E066
:1006B0006BE371E08AE692E00E9414038C0F9D1FA9
:1006C000DF91CF911F910F910895CF93DF93FC019C
:1006D0002781222359F1EC0161E080850E94BE024E
:1006E00061E089850E94BE028F81843011F08830DC
:1006F000B1F461E08A850E94BE0261E08B850E94B0
:10070000BE028FA58F3F91F061E00E94BE026EA5F0
:1007100081E068278FA5DF91CF910C949002833000
:1007200011F0863071F761E08A85E9CFDF91CF91D2
:100730000895CF93DF93FC0127812223A9F0EC01D8
:100740000190F081E02D0284F385E02D60E00995B1
:100750008FA58F3F49F061E00E94BE026EA58FA574
:10076000DF91CF910C949002DF91CF910895DC013D
:10077000ED91FC91228533854770552766277727B1
:1007800041505109610971094730510561057105F1
:1007900060F4FA01E253FC4F0C946617D803DA03B5
:1007A000DC03DE03E003E203E40361E0F901099402
:1007B00065E0FCCF64E0FACF66E0F8CF62E0F6CF08
:1007C0006AE0F4CF68E0F2CF69E0F0CFCF93DF9337
:1007D000EC01CB01BA0126E030E040E050E00E949D
:1007E0004717623071058105910589F16CF4611537
:1007F000710581059105D1F0613071058105910583
:10080000F9F0DF91CF91089564307105810591056C
:1008100061F124F1653071058105910591F7E88159
:10082000F9810284F385E02D66E006C0E881F98154
:100830000284F385E02D64E0CE01DF91CF9109942D
:10084000E881F9810284F385E02D65E0F5CFE88148
:10085000F9810284F385E02D61E0EECFE881F98132
:100860000284F385E02D63E0E7CFE881F98102841B
:10087000F385E02D62E0E0CFDC01ED91FC91028494
:10088000F385E02D437055276627772742305105C1
:100890006105710571F0433051056105710559F02D
:1008A000413051056105710511F065E0099466E07C
:1008B000FDCF6AE0FBCF69E0F9CFCF93DF93EC0186
:1008C000CB01BA0123E030E040E050E00E9447173E
:1008D000613071058105910599F0623071058105DE
:1008E0009105A9F0672B682B692BC1F4E881F98188
:1008F0000284F385E02D64E0CE01DF91CF9109946D
:10090000E881F9810284F385E02D61E0F5CFE8818B
:10091000F9810284F385E02D62E0EECFDF91CF9183
:100920000895DC01ED91FC910284F385E02D437084
:10093000552766277727423051056105710571F00B
:10094000433051056105710559F04130510561058C
:10095000710511F062E0099463E0FDCF61E0FBCF27
:1009600060E0F9CFCF93DF93EC01E881F981028455
:10097000F385E02D8A8160E0811162E0CE01099566
:10098000E881F9810284F385E02D8A8161E081119B
:1009900063E0CE0109958CA59DA58230910538F0C4
:1009A000880F991F880F991F05970197F1F7E88124
:1009B000F9810284F385E02D8A8160E0811162E093
:1009C000CE01DF91CF910994CF93DF93EC0120E02A
:1009D00030E0A901688D798D8A8D9B8D0E94B316B8
:1009E00018162CF4E8A9F9A9DF91CF910994EAA986
:1009F000FBA9FACFCF92DF92EF92FF920F931F9352
:100A0000CF93DF93DC011796CC91C43039F0C83016
:100A100059F1C33019F0C63049F1C2E08C01085FCA
:100A20001F4FF12CE12CC62ED12CD1E0F8016481AE
:100A3000C6010E2C02C0959587950A94E2F780FDB9
:100A40006D270F5F1F4F80810E949002BFEFEB1A4E
:100A5000FB0AEC1658F3DF91CF911F910F91FF9095
:100A6000EF90DF90CF900895C4E0D8CFC3E0D6CF09
:100A7000DC011796EC911797E93008F038C0F0E0E8
:100A8000EC5BFA4F0C9466174D05530559055F054D
:100A9000650577056B0577057105ED91FC91068479
:100AA000F785E02D0994ED91FC910088F189E02D06
:100AB000F9CFED91FC910288F389E02DF3CFED9110
:100AC000FC910488F589E02DEDCFED91FC9106882D
:100AD000F789E02DE7CFED91FC91008CF18DE02DB1
:100AE000E1CFED91FC91028CF38DE02DDBCF0895E9
:100AF000CF92DF92EF92FF920E94EF026B017C0196
:100B00008091300390913103A0913203B09133036F
:100B1000B701A601481B590B6A0B7B0B80910B0395
:100B200090910C03A0910D03B0910E034817590743
:100B30006A077B07A8F18091180390911903A0918F
:100B40001A03B0911B0320910A03222329F1019675
:100B5000A11DB11D8093180390931903A0931A034C
:100B6000B0931B03409118035091190360911A032D
:100B700070911B0388E093E00E943805C092300317
:100B8000D0923103E0923203F092330381E0FF9080
:100B9000EF90DF90CF9008950197A109B109DACFC6
:100BA00080E0F5CF4F925F926F927F928F929F92EB
:100BB000AF92BF92CF92DF92EF92FF920F931F936B
:100BC000CF93DF93EC01CC88DD88EE88FF8888899D
:100BD0009989AA89BB89C81AD90AEA0AFB0A688DC9
:100BE000798D8A8D9B8D9B01AC010E94B8164B01BB
:100BF0005C0168A179A18AA19BA19B01AC010E9423
:100C0000E8149B01AC01C501B4010E9459150E9472
:100C1000CB15C114D104E104F10409F0B6C062306F
:100C20007105810591050CF0D0C01B821C821D82CC
:100C30001E82188E198E1A8E1B8E1CAA1DAA1EAA21
:100C40001FAAC12CD12C7601C701B601DF91CF912B
:100C50001F910F91FF90EF90DF90CF90BF90AF90DA
:100C60009F908F907F906F905F904F900895101697
:100C7000110612061306B4F46C157D058E059F054A
:100C80001CF42A812111A1C09B01AC01882799275E
:100C9000DC01821B930BA40BB50B8CAB9DABAEABF5
:100CA000BFAB93C0011511052105310509F48DC0B5
:100CB0006C157D058E059F050CF087C08A81882301
:100CC00009F483C030952095109501951F4F2F4F43
:100CD0003F4F0CAB1DAB2EAB3FAB77C001151105E1
:100CE0002105310509F471C08824992454018C1818
:100CF0009D08AE08BF08681579058A059B050CF0AC
:100D000064C08A81811161C0DDCFCCACDDACEEACBA
:100D1000FFACA7019601C701B6010E94E8142B01A0
:100D20003C01C501B4010E94031620E030E040E818
:100D300050E40E94B81620E030E040E85FE30E94F3
:100D4000E8149B01AC01C301B2010E9459159B013B
:100D5000AC01C701B6010E94E7143B016C01FE0122
:100D6000E05CFF4FE080F180028113819701A801D0
:100D70000E94B316181614F473018601C701D80136
:100D80008CAF9DAFAEAFBFAF3AC00CA91DA92EA9C5
:100D90003FA91C141D041E041F040CF468CF101678
:100DA0001106120613060CF099CF0027112798019F
:100DB0000C191D092E093F09601771078207930757
:100DC0000CF062CF2A8121115FCF8CA89DA8AEA81C
:100DD000BFA881149104A104B10409F096CF88AD95
:100DE00099ADAAADBBAD8CAF9DAFAEAFBFAF81E04B
:100DF0001C141D041E041F040CF080E08A833FEFC6
:100E0000831A930AA30AB30A8CAA9DAAAEAABFAA00
:100E10008CAC9DACAEACBFACC501B4010E94D21588
:100E20006B017C01CB82DC82ED82FE82A501940104
:100E300060E074E284E799E40E945915688F798F25
:100E40008A8F9B8F2A812111FFCE9058688F798FCE
:100E50008A8F9B8FF9CE0F931F9300911C031091E3
:100E60001D0320911E0330911F0306171707280743
:100E7000390771F060931C0370931D0380931E0368
:100E800090931F0388E093E01F910F910C94D2057B
:100E90001F910F910895CF92DF92EF92FF92CF931F
:100EA000DF93C8E0D3E0688D798D8A8D9B8D9B019F
:100EB000AC010E94B8166B017C0168A179A18AA1DE
:100EC0009BA19B01AC010E94E8149B01AC01C701EE
:100ED000B6010E9459150E94CB156CAB7DAB8EAB51
:100EE0009FABCE01DF91CF91FF90EF90DF90CF903D
:100EF0000C94D205089508958EBD00000DB407FE30
:100F0000FDCF8EB50895FF920F931F93CF93DF937C
:100F1000F82E062F142F80E591E00E946001CCE4AA
:100F2000D3E060E08A890E94900285E00E947C07FD
:100F30008F2D0E947C07802F0E947C07812F0E94AA
:100F40007C0761E08A89DF91CF911F910F91FF901B
:100F50000C949002FF920F931F93CF93DF93C82FAF
:100F6000F62E172F042F80E591E00E94600160E0CB
:100F700080915E030E94900283E00E947C078C2F88
:100F80000E947C07CF2DD12F0C0F1D2F111DC017D4
:100F9000D10729F080E00E947C078993F8CF61E0B7
:100FA00080915E03DF91CF911F910F91FF900C9480
:100FB00090021F93CF93DF93182F80E591E00E945A
:100FC0006001CCE4D3E060E08A890E94900283E073
:100FD0000E947C07812F0E947C0780E00E947C0792
:100FE000182F61E08A890E949002812FDF91CF91B2
:100FF0001F9108950F931F93CF93DF9300D000D0DC
:10100000CDB7DEB7182F10924C0310924D031092FB
:101010004E0310924F031092500344E0BE016F5FE5
:101020007F4F0E94AA072A81898138E0839FC001EF
:101030001124422F50E065E0559547956A95E1F7F8
:10104000840F951F092E000CAA0BBB0B80934D0338
:1010500090934E03A0934F03B093500323FF29C0F6
:1010600032E0880F991FAA1FBB1F3A95D1F7237052
:10107000820F911DA11DB11DBA2FA92F982F88276E
:101080002B81820F911DA11DB11DBA2FA92F982F61
:1010900088272C81820F911DA11DB11D80934D03C6
:1010A00090934E03A0934F03B093500381E080933D
:1010B0004C038FEF810F0E94D907082F84E0810F26
:1010C0000E94D90703FF16C091E090935A03482F5E
:1010D0004F704093510362E573E085E0810F0E94F9
:1010E000AA070F900F900F900F90DF91CF911F9153
:1010F0000F91089510925A03EACFCF93DF93D82F20
:101100002FB7F8948091660290916702A0916802CF
:10111000B09169022FBFC82F4D2F60EE8FE00E9463
:1011200083078EE00E94D907807ED81791F02FB7F1
:10113000F8948091660290916702A0916802B09144
:1011400069022FBF8C1B893C38F381E0DF91CF917E
:10115000089580E0FBCFCF93DF93C82F8EE00E94ED
:10116000D907807E8032F9F4C032E9F08BE20E9428
:10117000D907D82FD07486FD05C040E460E48BE227
:101180000E94830740E460E48CE20E94830780E6CB
:101190000E947D08811111C0D11105C040E060E4BA
:1011A0008BE20E94830740E060E48CE20E948307A8
:1011B0008C2FDF91CF910C947D0881E0DF91CF914E
:1011C00008951F93CF93DF9380E591E00E94600123
:1011D000CCE4D3E060E08A890E94900280EA0E9419
:1011E0007C0780E00E947C07182F61E08A890E94BA
:1011F0009002812FDF91CF911F910895FF920F935D
:101200001F93CF93DF93C82FF62E172F042F80E55F
:1012100091E00E94600160E080915E030E94900274
:1012200082E00E947C078C2F0E947C07CF2DD12F5B
:101230000C0F1D2F111DC017D10721F089910E949D
:101240007C07F9CF61E080915E03DF91CF911F9120
:101250000F91FF900C949002CF93DF9300D000D0B9
:10126000CDB7DEB71C821B82613081F498E09A838F
:10127000198244E0BE016F5F7F4F0E94FE080F900D
:101280000F900F900F90DF91CF9108951A82F0CFB9
:101290000F931F93CF93DF93082F162F80E591E0D4
:1012A0000E946001CCE4D3E060E08A890E94900251
:1012B00082E00E947C07802F0E947C07812F0E9481
:1012C0007C0761E08A89DF91CF911F910F910C9487
:1012D00090022F923F924F925F926F927F928F92E5
:1012E0009F92AF92CF92DF92EF92FF920F931F9354
:1012F000CF93DF9300D000D0CDB7DEB70E94EF02CE
:101300002B013C018090060190900701A0900801FC
:101310001E0124E0220E311C89829A82AB82CE010A
:1013200001966C01F82E0D2DF60111916F01812FA0
:101330000E94D90783FD14C01F5FE12C0E94EF02B9
:10134000DC01CB0184199509A609B709F2E0EF1277
:101350000EC0843C9940A105B105F0F206E07DC0C5
:10136000C214D30409F710E072E0E72EE7CF843C03
:101370009940A105B10590F74091510362E573E0F2
:1013800085E0810F0E94FE0880915A03813029F484
:10139000809151038064809351036091510384E0F4
:1013A000810F0E94480940914D0350914E03609176
:1013B0004F037091500380914C038130D9F54C83D9
:1013C0005B83AB0166277727842F83708860942F17
:1013D000990F990F990F907E892B8A8365E0569516
:1013E00047956A95E1F7498344E06F2D702F812F6F
:1013F0000E94FE08115048E068E0812F0E94830798
:101400000E94EF026B017C01812F0E94D907082FF7
:1014100008700E94EF02DC01CB018C199D09AE0916
:10142000BF090023A9F0843C9940A105B10560F3F0
:1014300007E013C0CA0123E0969587952A95E1F746
:1014400089834295440F407E4A831C821B82CCCF05
:10145000843C9940A105B10558F7802F0F900F905B
:101460000F900F90DF91CF911F910F91FF90EF9010
:10147000DF90CF90AF909F908F907F906F905F9014
:101480004F903F902F900895AF92BF92CF92DF92EE
:10149000EF92FF920F931F93CF93DF93CDB7DEB7F9
:1014A00028970FB6F894DEBF0FBECDBFFE0133966E
:1014B00086E0DF011D928A95E9F760914E027091F6
:1014C0004F02809150029091510220EA3CE840E0A6
:1014D00050E00E948617A0E00E94A9180CF455C0A5
:1014E0003C544F4F5F4F6F4F7F4F8F4F9F4FA12CFB
:1014F000E8E6BE2ECC24C394D12CE12CF12C00E0E4
:1015000010E00E94C217C901DA01811540E8940772
:10151000A105B1050CF041C0811540E894074FEFDB
:10152000A407B407ECF189833A8382E093E0A0E05A
:10153000B0E080934D0390934E03A0934F03B0937C
:10154000500310925A0310924C0388E08093510389
:10155000FE013196A2E5B3E0CE01099621912D93CB
:10156000E817F907D9F728960FB6F894DEBF0FBE33
:10157000CDBFDF91CF911F910F91FF90EF90DF9042
:10158000CF90BF90AF900C946909345B4109510929
:101590006109710981099109AACF8FEF3FE7C3CF94
:1015A00080E030E8C0CF1092520260914E027091FC
:1015B0004F02809150029091510260934A027093C1
:1015C0004B0280934C0290934D020E942B0760E0E7
:1015D00070E0CB010E94D50080914602811107C0C6
:1015E00081E08093480281E080935702089583E070
:1015F000F8CFCF92DF92EF92FF9280915202811149
:101600004CC080916002811148C0809153028111C9
:1016100044C080915502882309F43FC020914602BE
:10162000211108C0809148028330B9F581E0809390
:10163000480233C080914702482F50E0FA0183E00E
:10164000EE0FFF1F8A95E1F7EB5BFE4F6081718122
:1016500082819381C480D580E680F7804F5F5F4FA1
:101660004F715527409347022150209346026093C3
:101670004A0270934B0280934C0290934D020E9459
:101680002B07C701B6010E94D50081E0809352026A
:1016900093E09093480280935702FF90EF90DF9081
:1016A000CF900895CF92DF92EF92FF920F931F9306
:1016B000CF93DF93CDB7DEB728970FB6F894DEBF90
:1016C0000FBECDBF80915602882309F49DC0809142
:1016D00048028983309153023A8320916002922F0D
:1016E00021111BC0909152029923B9F091E0C09052
:1016F0004E02D0904F02E0905002F0905102409183
:101700004A0250914B0260914C0270914D02C416F6
:10171000D506E606F70609F490E01091550200910F
:1017200054024091450241111DC080E0911125C035
:1017300025C0211123C0C0904E02D0904F02E090EE
:101740005002F090510240914A0250914B02609138
:101750004C0270914D02C416D506E606F70671F4E8
:1017600088600CC0112331F0011104C0843011F0E5
:1017700083E0311181E09923E1F284608B831C8244
:101780000E946C0221E0019709F020E02D839091E6
:10179000460280E2891B011180E08E831F838091C5
:1017A0003E0191E0980F90933E01888782E092E09D
:1017B000A0E0B0E080934D0390934E03A0934F03BD
:1017C000B093500310925A0310924C0388E0809318
:1017D0005103FE013196A2E5B3E0CE0109962191B5
:1017E0002D93E817F907D9F728960FB6F894DEBFBE
:1017F0000FBECDBFDF91CF911F910F91FF90EF9062
:10180000DF90CF900C94690928960FB6F894DEBF4C
:101810000FBECDBFDF91CF911F910F91FF90EF9041
:10182000DF90CF9008958091180390911903A091B3
:101830001A03B0911B0380934E0290934F02A09322
:101840005002B093510208950E94130C1092470267
:10185000109246021092520260914E0270914F0215
:10186000809150029091510260934A0270934B0212
:1018700080934C0290934D020E942B0760E070E031
:10188000CB010C94D500CF93C82F0E94240C10924A
:101890006002C093530280915402882341F085E096
:1018A0008093480281E080935702CF91089584E0AD
:1018B000F7CFFC01E60FF11D8191811105C06F5F2B
:1018C0006830D1F781E0089580E008950C945A19AA
:1018D0001F920F920FB60F9211242F933F938F9365
:1018E0009F93AF93BF938091660290916702A091FE
:1018F0006802B09169023091610223E0230F2D3715
:1019000058F50196A11DB11D2093610280936602D6
:1019100090936702A0936802B0936902809162027B
:1019200090916302A0916402B09165020196A11D9D
:10193000B11D8093620290936302A0936402B093FE
:101940006502BF91AF919F918F913F912F910F9021
:101950000FBE0F901F90189526E8230F0296A11D29
:10196000B11DD2CF1F920F920FB60F9211242F9359
:101970003F934F935F936F937F938F939F93AF9317
:10198000BF93EF93FF938AE692E00E94A001FF913C
:10199000EF91BF91AF919F918F917F916F915F91E7
:1019A0004F913F912F910F900FBE0F901F90189560
:1019B0001F920F920FB60F9211242F938F939F9324
:1019C000EF93FF93E0917A02F0917B028081E091A6
:1019D0008002F091810282FD1BC090818091830280
:1019E0008F5F8F7320918402821741F0E091830210
:1019F000F0E0E659FD4F958F80938302FF91EF91C0
:101A00009F918F912F910F900FBE0F901F9018955F
:101A10008081F4CF8F929F92AF92BF92CF92DF924C
:101A2000EF92FF9210926D0210926C0288EE93E09A
:101A3000A0E0B0E080936E0290936F02A0937002DA
:101A4000B09371028DE091E090936B0280936A02F3
:101A500085EC90E0909377028093760284EC90E09E
:101A6000909379028093780280EC90E090937B02CF
:101A700080937A0281EC90E090937D0280937C02C7
:101A800082EC90E090937F0280937E0286EC90E05F
:101A900090938102809380021092830210928402BC
:101AA00010928502109286028AE080935E0361E0C4
:101AB0000E94900261E080915E030E94BE0287E076
:101AC00093E090935D0380935C038FE191E09093AA
:101AD00009038093080381E080930F031092180399
:101AE0001092190310921A0310921B0310921C03F8
:101AF00010921D0310921E0310921F0310922003D8
:101B000010922103109222031092230310922403B7
:101B10001092250310922603109227031092280397
:101B20001092290310922A0310922B03C12CD12C5E
:101B300080E8E82E8FE3F82EC0922C03D0922D037C
:101B4000E0922E03F0922F0310920B0310920C03DD
:101B500010920D0310920E0381E090E090933503F4
:101B6000809334038FEF80933703109230031092E9
:101B70003103109232031092330386E080931003F6
:101B800087E08093110384E08093120385E08093C3
:101B900013031092360310923C0310923D031092EF
:101BA0003E0310923F0310924003109241031092A3
:101BB0004203109243031092440310924503109283
:101BC000460310924703C0924803D0924903E09223
:101BD0004A03F0924B0310920A03109214031092DE
:101BE0001503109216031092170388E093E00E94E9
:101BF00065038090280390902903A0902A03B09059
:101C00002B03A7019601C501B4010E945415882336
:101C100081F160913C0370913D0380913E0390916E
:101C20003F030E940316A50194010E94B8160E946A
:101C3000CB1560933C0370933D0380933E039093D8
:101C40003F0386E896E6A9E6B9E4809340039093C3
:101C50004103A0934203B0934303C0922803D09260
:101C60002903E0922A03F0922B0388E093E00E947C
:101C7000D20520E030E040E85FE3609124037091FA
:101C8000250380912603909127030E9454158823F1
:101C900079F180E090E0A0E8BFE380932403909383
:101CA0002503A0932603B093270380E094E2A4E7E2
:101CB000B9E48093480390934903A0934A03B093F7
:101CC0004B0380913C0390913D03A0913E03B09162
:101CD0003F03181619061A061B0654F4FF90EF90DE
:101CE000DF90CF90BF90AF909F908F900C944B0758
:101CF000FF90EF90DF90CF90BF90AF909F908F902C
:101D00000895CF93DF93CDB7DEB76E970FB6F894F3
:101D1000DEBF0FBECDBF789484B5826084BD84B52C
:101D2000816084BD85B5826085BD85B5816085BDD6
:101D300080916E00816080936E001092810080918E
:101D40008100826080938100809181008160809316
:101D50008100809180008160809380008091B1003B
:101D600084608093B1008091B00081608093B00066
:101D700080917A00846080937A0080917A008260FA
:101D800080937A0080917A00816080937A008091BC
:101D90007A00806880937A001092C10061E086E04A
:101DA0000E94BE0261E087E00E94BE0261E088E01E
:101DB0000E94BE0262E083E00E94BE0262E082E016
:101DC0000E94BE0260E086E00E94900260E087E030
:101DD0000E94900261E088E00E94900220E030E4DE
:101DE0004CE954E46091240370912503809126030B
:101DF000909127030E945415882339F180E090E4E4
:101E0000ACE9B4E48093240390932503A0932603C4
:101E1000B093270380E090E0A8E4B4E48093480303
:101E200090934903A0934A03B0934B0380913C03E2
:101E300090913D03A0913E03B0913F0318161906FF
:101E40001A061B0614F40E944B0785E090E090935D
:101E500035038093340310921803109219031092E3
:101E60001A0310921B0310921C0310921D03109270
:101E70001E0310921F0310923C0310923D03109218
:101E80003E0310923F0310920B0310920C0310922A
:101E90000D0310920E031092200310922103109252
:101EA00022031092230310924A0210924B021092C6
:101EB0004C0210924D028FB7F894C0906602D090F9
:101EC0006702E0906802F09069028FBF0E946C0286
:101ED00021E0019709F020E020934401209349027A
:101EE000C0924001D0924101E0924201F092430140
:101EF000C0925802D0925902E0925A02F0925B02CC
:101F0000C0925C02D0925D02E0925E02F0925F02AB
:101F10001FB7F89480913F01811127C0E2E2F1E000
:101F20008491E6E3F1E09491E82FF0E0EE0FFF1FDB
:101F3000E650FF4FA591B491EC91E92321F461E0C3
:101F40008AE00E94900261E08AE00E94BE028CB5A5
:101F500080618CBD8CB580648CBD61E08DE00E9499
:101F6000BE0261E08BE00E94BE0280913F018F5F64
:101F700080933F011FBF80E591E00E94600160E017
:101F800080915E030E94900280EC0E947C0761E0D9
:101F900080915E030E9490020E94EF022B013C019F
:101FA00055E0C52ED12CE12CF12C0E94EF026419D2
:101FB000750986099709683E734081059105A8F364
:101FC00021E0C21AD108E108F10838EE430E33E0EF
:101FD000531E611C711CC114D104E104F10429F7E2
:101FE00080E480935F0380E80E94AB08882309F4B3
:101FF000C4C083ED90E00E9441031092560283E03A
:102000008093530284E0809348020E94520B809197
:10201000560281110E94440ABE016F5F7F4F1B016F
:102020008FB7F89420916602309167024091680260
:1020300050916902298B3A8B4B8B5C8B8FBF0E942E
:10204000130C0E946C0221E0019709F020E08091BE
:102050004401821771F02093440149895A896B89A0
:102060007C894093400150934101609342017093F9
:1020700043018091400190914101A0914201B091B2
:10208000430149895A896B897C89481B590B6A0B22
:102090007B0BDB01CA014497A105B10510F0209329
:1020A000490280915602882309F470C151E1598F89
:1020B00088248394698D6150698F662309F466C111
:1020C0000E94E108837009F461C1D101E8E01D922A
:1020D000EA95E9F70E94E10880FFBDC081E60E9411
:1020E000FA0740E061E08CE20E94830780914C0394
:1020F000882389F080914D0390914E03A0914F0366
:10210000B0915003B06880934D0390934E03A09319
:102110004F03B093500380915A03882389F0809134
:102120004D0390914E03A0914F03B0915003B064C2
:1021300080934D0390934E03A0934F03B0935003AD
:1021400080914D0390914E03A0914F03B0915003A5
:102150001091510322E533E07101412F50E0B701A6
:1021600062197309641775070CF08EC2F901619149
:102170009F01F70161937F01F2CF8BEA90E00E940B
:10218000410360E08AE20E94480961ED89E20E9411
:10219000480961E888E20E9448098EE890E00E94C0
:1021A000410361E080E20E942C0961E084E20E9428
:1021B0002C0961E080E00E942C0960E084E00E942C
:1021C0002C0961E088E00E942C0960E080E10E9417
:1021D0002C0961E084E10E942C0960E088E10E9402
:1021E0002C0910E360E0812F0E94480960E080E143
:1021F000810F0E94480960E080E2810F0E94480937
:102200001F5F1E3379F760E080E60E94480960E0B6
:1022100080E70E94480963E08BE20E9448096CE372
:102220008CE00E94480960E08DE00E94480944E685
:1022300064E680E60E94830740E660E680E70E944D
:10224000830780915F030E94AB08882309F412C2C0
:1022500088E690E0D0CE81FF2DCF81E70E94FA077B
:1022600040E062E040CF183049F41981113031F478
:1022700061E0C1010E94590C811104C081E00E94FB
:10228000430C18CF0E94240C109260021093540249
:1022900085E080934802109357020CCF8111EECF56
:1022A0000E94240C109260021092550261E088E0B6
:1022B0000E949002F6E0F093480219C21830F1F63D
:1022C00089818F3FD9F68A818111D8CF62E0C1011F
:1022D0000E94590C882391F280915502882371F253
:1022E000809154028111CACF809153028111C6CFCF
:1022F0000E94240C109245028092600282E080933A
:10230000480260E070E48CE994EC0E94D500EFC1D3
:10231000183009F0B3CF89818F3F09F0AFCF61E06A
:10232000C1010E94590C882309F4A8CF10925402CD
:10233000109253020E94240C80915502882321F0B0
:1023400081E080934802D3C186E0FBCF80915202A6
:10235000882349F040904A0250904B0260904C0212
:1023600070904D029CC240904E0250904F0260907F
:1023700050027090510293C2C12C80E4D82E8CE997
:10238000E82E84E4F82E0AC385E079CF90916002AC
:1023900080915502992309F4E9C0882349F080917E
:1023A0005402811105C080915302882309F468C04A
:1023B0000E94240C109260020E94130C80915C0217
:1023C00090915D02A0915E02B0915F0229893A89E5
:1023D0004B895C89281B390B4A0B5B0BDA01C9015D
:1023E00084369105A105B10588F049895A896B8920
:1023F0007C8940935C0250935D0260935E0270930F
:102400005F028091560281110E94440A8091580215
:1024100090915902A0915A02B0915B0229893A89A0
:102420004B895C89281B390B4A0B5B0BDA01C9010C
:1024300084369105A105B10570F049895A896B89E7
:102440007C89409358025093590260935A027093CA
:102450005B020E94520B80915702882321F0109258
:1024600057020E94520B60E070E0672B09F4D8CD50
:102470000E942F02882309F4D3CD0E940000D0CD02
:1024800080914902882309F457C040E056EA6FEF73
:102490007FEF409318035093190360931A037093CE
:1024A0001B0340931C0350931D0360931E03709302
:1024B0001F0310923C0310923D0310923E031092B2
:1024C0003F0310920B0310920C0310920D03109215
:1024D0000E031092200310922103109222031092F7
:1024E000230340934E0250934F0260935002709327
:1024F000510240934A0250934B0260934C027093F6
:102500004D0260E076EA8FEF9FEF0E942B0760E0BC
:1025100070E0CB010E94D500109247021092460253
:10252000109252021092600281E0809345028093E3
:1025300048028093570240CF82E08093480260E0D7
:1025400070E48CE994EC0E94D50080910B0390918B
:102550000C03A0910D03B0910E03892B8A2B8B2BBA
:1025600011F00E9478050E94130C26CF882309F4ED
:1025700023CF8091540281111FCF8091530281118A
:102580001BCF0E94F90A80915202882309F414CFCC
:102590000E94130C40914E0250914F0260915002E4
:1025A0007091510280914A0290914B02A0914C028D
:1025B000B0914D02481759076A077B0729F40E941A
:1025C000D30A0E94F90AF8CE84179507A607B70721
:1025D00044F480914902882321F082E00E94430C58
:1025E000EBCE40911C0350911D0360911E0370912E
:1025F0001F038091180390911903A0911A03B091C1
:102600001B03481759076A077B07B1F08417950722
:10261000A607B70764F581E080930A0380910B0356
:1026200090910C03A0910D03B0910E03892B8A2B7E
:102630008B2B11F00E9478050E94130C40914E02E2
:1026400050914F02609150027091510280914A0264
:1026500090914B02A0914C02B0914D02481759073E
:102660006A077B0709F0A8CE0E94D30AA5CE109274
:102670000A03D4CF10925F0380E00E94AB0881E090
:102680008093560286E0BFCC80329105A105B1054A
:1026900009F414CE78F581309105A105B10509F44E
:1026A000E2CD4097A105B10509F004CD183009F03D
:1026B000E5CD61E0C1010E94590C882309F4DECD0B
:1026C0008981813009F0EACD1092540210925302B0
:1026D0008093550260E088E00E9490028091480259
:1026E000882319F08450833010F48092480280923D
:1026F0005702E0CC80339105A105B10509F408CE5D
:1027000082309140A105B10509F0D4CC183009F010
:10271000B5CD0E94130C80915502882309F4AECDEB
:10272000809154028111AACD809153028111A6CDCE
:10273000809160028111A2CD80914502882309F425
:102740009DCD998097FE9ACD892D8F7109F096CDF8
:102750006A817B818C819D8169877A878B879C8741
:102760008B019C01330F000B102F98010D870E87F2
:102770000F87088B95FC22C020E038E641E050E04E
:102780000E948617E0EAAE2EFCE8BF2EC12CD12CA9
:10279000E12CF12C00E010E00E94C21759016A01FF
:1027A000A986BA86CB86DC86DA01C901BB0F880B05
:1027B000982FDC018D878E878F87888B96FE3DC092
:1027C00080914E0290914F02A0915002B09151021F
:1027D0006C017D01FF0CCC08DC2C76019C01AD0165
:1027E0006C2D7C2D8C2D9C2DA984BA84CB84DC840B
:1027F000ED84FE840F8518890E94971829873A87EF
:102800004B875C876D877E878F87988B2115310575
:102810004105A0E85A07AFEF6A077A078A079A07C7
:102820000CF42CCD2F3F3F4F4F4F5F476105710593
:102830008105910511F00CF021CD29853A854B8554
:102840005C852B8F3C8F4D8F5E8FDA01C901965AC4
:10285000AF4FBF4F8130944BA105B10508F00ECDAD
:10286000909046024FE1491508F48ECD50914702F1
:102870005A8F992009F46ACD652F690D7727771F44
:10288000FB013197EF71FF2733E0EE0FFF1F3A9501
:10289000E1F7EB5BFE4F4080518062807380D30193
:1028A000C201BB0F880B982FDC018D8B9E8BAF8BE9
:1028B000B88F29853A854B855C856D857E858F85AA
:1028C000988952016301ED88FE2C0E2D1E2D0E9469
:1028D000A018122FB32FF42FE52FA0E00E94A91803
:1028E00034F40E945018122FB32FF42FE52FC12E6D
:1028F000DB2EEF2EFE2E288530E0A5E0B0E00E9412
:102900006C172B013C01411451046104710421F442
:10291000412C512C32014394C114D104E104F1043F
:1029200009F42ACDC701B6010E94011620E030E06B
:102930004AE754E40E94B8166D8B7E8B8F8B988F7C
:10294000A8EEB3E0A70196010E947B176F517B4F61
:102950008F4F9F4F22EE34E040E050E00E94251759
:10296000241535054605570510F4A3019201CA0147
:10297000B9010E9401169B01AC016D897E898F8986
:10298000988D0E9459156B017C0120E030E44CE9E0
:1029900054E40E94B31618160CF4EECCEA8DE90D3F
:1029A000EF7198E0E99FF0011124EB5BFE4F2B8D56
:1029B0003C8D4D8D5E8D2083318342835383C48251
:1029C000D582E682F78293949092460290CE505838
:1029D000BB27AA270E94FF140C9479160E946B163D
:1029E00038F00E94721620F039F49F3F19F426F453
:1029F0000C9468160EF4E095E7FB0C946216E92F30
:102A00000E948A1658F3BA1762077307840795075E
:102A100020F079F4A6F50C94AC160EF4E0950B2E8C
:102A2000BA2FA02D0B01B90190010C01CA01A00120
:102A30001124FF27591B99F0593F50F4503E68F17B
:102A40001A16F040A22F232F342F4427585FF3CFBC
:102A5000469537952795A795F0405395C9F77EF48D
:102A60001F16BA0B620B730B840BBAF09150A1F0D6
:102A7000FF0FBB1F661F771F881FC2F70EC0BA0F5C
:102A8000621F731F841F48F4879577956795B795E4
:102A9000F7959E3F08F0B0CF9395880F08F09927DF
:102AA000EE0F9795879508950E943E1608F481E0F1
:102AB00008950E946D150C9479160E94721658F0B4
:102AC0000E946B1640F029F45F3F29F00C946216C7
:102AD00051110C94AD160C9468160E948A1668F376
:102AE0009923B1F3552391F3951B550BBB27AA27C7
:102AF00062177307840738F09F5F5F4F220F331F01
:102B0000441FAA1FA9F335D00E2E3AF0E0E832D0C8
:102B100091505040E695001CCAF72BD0FE2F29D0CB
:102B2000660F771F881FBB1F261737074807AB079D
:102B3000B0E809F0BB0B802DBF01FF2793585F4F12
:102B40003AF09E3F510578F00C9462160C94AD1645
:102B50005F3FE4F3983ED4F3869577956795B795F4
:102B6000F7959F5FC9F7880F911D9695879597F9FF
:102B70000895E1E0660F771F881FBB1F6217730778
:102B80008407BA0720F0621B730B840BBA0BEE1F8D
:102B900088F7E09508950E94D2156894B1110C94BD
:102BA000AD1608950E94921688F09F5798F0B92F9D
:102BB0009927B751B0F0E1F0660F771F881F991F72
:102BC0001AF0BA95C9F714C0B13091F00E94AC1652
:102BD000B1E008950C94AC16672F782F8827B85F62
:102BE00039F0B93FCCF3869577956795B395D9F7CA
:102BF0003EF490958095709561957F4F8F4F9F4FD4
:102C00000895E89409C097FB3EF4909580957095DF
:102C100061957F4F8F4F9F4F9923A9F0F92F96E928
:102C2000BB279395F695879577956795B795F1119D
:102C3000F8CFFAF4BB0F11F460FF1BC06F5F7F4F3A
:102C40008F4F9F4F16C0882311F096E911C077234C
:102C500021F09EE8872F762F05C0662371F096E855
:102C6000862F70E060E02AF09A95660F771F881F24
:102C7000DAF7880F9695879597F90895990F0008C8
:102C8000550FAA0BE0E8FEEF16161706E807F9073E
:102C9000C0F012161306E407F50798F0621B730BD9
:102CA000840B950B39F40A2661F0232B242B252B5A
:102CB00021F408950A2609F4A140A6958FEF811DFD
:102CC000811D089597F99F6780E870E060E008959E
:102CD0009FEF80EC089500240A9416161706180634
:102CE0000906089500240A94121613061406050610
:102CF0000895092E0394000C11F4882352F0BB0FA1
:102D000040F4BF2B11F460FF04C06F5F7F4F8F4F03
:102D10009F4F089557FD9058440F551F59F05F3F3E
:102D200071F04795880F97FB991F61F09F3F79F0ED
:102D300087950895121613061406551FF2CF46956F
:102D4000F1DF08C0161617061806991FF1CF8695F1
:102D50007105610508940895E894BB2766277727D5
:102D6000CB0197F908950E943E1608F48FEF08955D
:102D70000E94CB160C9479160E946B1638F00E94B4
:102D8000721620F0952311F00C9462160C946816BC
:102D900011240C94AD160E948A1670F3959FC1F30E
:102DA000950F50E0551F629FF001729FBB27F00DF9
:102DB000B11D639FAA27F00DB11DAA1F649F66274E
:102DC000B00DA11D661F829F2227B00DA11D621F9D
:102DD000739FB00DA11D621F839FA00D611D221F57
:102DE000749F3327A00D611D231F849F600D211D3B
:102DF000822F762F6A2F11249F5750409AF0F1F0BE
:102E000088234AF0EE0FFF1FBB1F661F771F881F26
:102E100091505040A9F79E3F510580F00C946216E6
:102E20000C94AD165F3FE4F3983ED4F38695779506
:102E30006795B795F795E7959F5FC1F7FE2B880FCC
:102E4000911D9695879597F90895A1E21A2EAA1BD0
:102E5000BB1BFD010DC0AA1FBB1FEE1FFF1FA2174A
:102E6000B307E407F50720F0A21BB30BE40BF50B47
:102E7000661F771F881F991F1A9469F760957095D0
:102E8000809590959B01AC01BD01CF010895052E61
:102E900097FB1EF400940E945E1757FD07D00E9416
:102EA000251707FC03D04EF40C945E1750954095FF
:102EB000309521953F4F4F4F5F4F089590958095E6
:102EC000709561957F4F8F4F9F4F0895EE0FFF1FB5
:102ED0000590F491E02D0994A29FB001B39FC00129
:102EE000A39F700D811D1124911DB29F700D811D36
:102EF0001124911D08950E946C17A59F900DB49FF9
:102F0000900DA49F800D911D1124089597FB57FFEC
:102F10000C9496179F938F930E9496176E1B7F0BAE
:102F2000AF91BF918A0B9B0B0895E894DF93CF93E9
:102F3000FC01DB010E946C177F936F93E9019A01FA
:102F4000AC01BF93AF933F932F93DF010E946C17A7
:102F500026F46C1B7D0B820B930B9E01EB01FC0195
:102F60000E94B518AF91BF912F913F910E94B51863
:102F7000BE01CF01F9012F913F91CF91DF910895CB
:102F8000689401C0E894F92FF12B12F00C94F41717
:102F9000A0E0B0E0EEECF7E10C946618092E059481
:102FA00022F40E945018112392F4F0E80F26FFEF4C
:102FB000E094F09400951095B094C094D094A194AE
:102FC000BF0ACF0ADF0AEF0AFF0A0F0B1F0B0E948E
:102FD000FF1707FC0E945018CDB7DEB7ECE00C9449
:102FE0008218689401C0E8948F929F92CF93DF93E8
:102FF0000E94FF17DF91CF919F908F9008958824B2
:103000009924F401E401B0E49F93AA279A158B0454
:103010009C04ED05FE05CF05D007A10798F4AD2F60
:10302000DC2FCF2FFE2FE92D982C892E982F872F5C
:10303000762F652F542F432F322F2227B85031F788
:10304000BF9127C01B2EBF91BB27220F331F441FE8
:10305000551F661F771F881F991F881C991CEE1F1C
:10306000FF1FCC1FDD1FAA1FBB1F8A149B04EC058A
:10307000FD05CE05DF05A007B10748F08A189B08BB
:10308000EC09FD09CE09DF09A00BB10B21601A94F0
:10309000E1F62EF49401AF01BE01CD01000C0895BC
:1030A00060957095809590953095409550952195B7
:1030B0003F4F4F4F5F4F6F4F7F4F8F4F9F4F089541
:1030C0002F923F924F925F926F927F928F929F9238
:1030D000AF92BF92CF92DF92EF92FF920F931F9326
:1030E000CF93DF93CDB7DEB7CA1BDB0B0FB6F894D7
:1030F000DEBF0FBECDBF09942A88398848885F8417
:103100006E847D848C849B84AA84B984C884DF8087
:10311000EE80FD800C811B81AA81B981CE0FD11D6B
:103120000FB6F894DEBF0FBECDBFED0108952A0D96
:103130003B1D4C1D5D1D6E1D7F1D801F911F089541
:103140002A193B094C095D096E097F09800B910B17
:1031500008950024A7FD00942A1730054005500566
:10316000600570058005900508950E946C17460F54
:10317000571FC81FD91F08F4319608950F931F9346
:10318000CF93DF938230910510F482E090E0E091DC
:103190006203F091630330E020E0B0E0A0E03097FC
:1031A00099F42115310509F44AC0281B390B243044
:1031B0003105D8F58A819B816115710589F1FB0183
:1031C00093838283FE0111C040815181028113816A
:1031D00048175907E0F04817590799F4109761F01C
:1031E00012960C93129713961C933296CF01DF918F
:1031F000CF911F910F910895009362031093630381
:10320000F4CF2115310551F04217530738F0A901C9
:10321000DB019A01BD01DF01F801C1CFEF01F9CF58
:103220009093630380936203CDCFFE01E20FF31FFF
:10323000819391932250310939832883D7CF2091EC
:10324000600330916103232B41F4209102013091FE
:1032500003013093610320936003209100013091BA
:1032600001012115310541F42DB73EB7409104010C
:1032700050910501241B350BE0916003F09161032F
:10328000E217F307A0F42E1B3F0B2817390778F03D
:10329000AC014E5F5F4F2417350748F04E0F5F1F9C
:1032A0005093610340936003819391939FCFF0E02B
:1032B000E0E09CCFCF93DF930097E9F0FC013297D9
:1032C00013821282A0916203B0916303ED0130E09A
:1032D00020E01097A1F420813181820F931F20916B
:1032E0006003309161032817390709F061C0F0933A
:1032F0006103E0936003DF91CF910895EA01CE1757
:10330000DF07E8F54A815B819E0141155105B1F760
:10331000E901FB83EA8349915991C40FD51FEC174A
:10332000FD0761F4808191810296840F951FE90168
:1033300099838883828193819B838A83F0E0E0E094
:1033400012968D919C9113970097B9F52D913C9110
:103350001197CD010296820F931F20916003309147
:1033600061032817390739F6309751F51092630336
:1033700010926203B0936103A0936003BCCFD38328
:10338000C28340815181840F951FC817D90761F40A
:103390004E5F5F4F88819981480F591F5183408349
:1033A0008A819B81938382832115310509F0B0CFF7
:1033B000F0936303E09362039ECFFD01DC01C0CF75
:1033C00013821282D7CFF894FFCF000064038000ED
:1033D00030405000000000C201140363010F02944A
:1033E000017201860100000000990365037A0766F7
:1033F0000CD205FA043805E404B20491045D043CDF
:0834000004E603B7030D0A0006
:107E0000112484B714BE81FFF0D085E080938100F7
:107E100082E08093C00088E18093C10086E0809377
:107E2000C20080E18093C4008EE0C9D0259A86E02C
:107E300020E33CEF91E0309385002093840096BBD3
:107E4000B09BFECF1D9AA8958150A9F7CC24DD24C4
:107E500088248394B5E0AB2EA1E19A2EF3E0BF2EE7
:107E6000A2D0813461F49FD0082FAFD0023811F036
:107E7000013811F484E001C083E08DD089C08234E0
:107E800011F484E103C0853419F485E0A6D080C0E4
:107E9000853579F488D0E82EFF2485D0082F10E0AE
:107EA000102F00270E291F29000F111F8ED06801E7
:107EB0006FC0863521F484E090D080E0DECF843638
:107EC00009F040C070D06FD0082F6DD080E0C81688
:107ED00080E7D80618F4F601B7BEE895C0E0D1E017
:107EE00062D089930C17E1F7F0E0CF16F0E7DF06D8
:107EF00018F0F601B7BEE89568D007B600FCFDCFD4
:107F0000A601A0E0B1E02C9130E011968C91119780
:107F100090E0982F8827822B932B1296FA010C0160
:107F200087BEE89511244E5F5F4FF1E0A038BF0790
:107F300051F7F601A7BEE89507B600FCFDCF97BE46
:107F4000E89526C08437B1F42ED02DD0F82E2BD052
:107F50003CD0F601EF2C8F010F5F1F4F84911BD097
:107F6000EA94F801C1F70894C11CD11CFA94CF0C13
:107F7000D11C0EC0853739F428D08EE10CD085E9AC
:107F80000AD08FE07ACF813511F488E018D01DD067
:107F900080E101D065CF982F8091C00085FFFCCF94
:107FA0009093C60008958091C00087FFFCCF809118
:107FB000C00084FD01C0A8958091C6000895E0E648
:107FC000F0E098E1908380830895EDDF803219F02E
:107FD00088E0F5DFFFCF84E1DECF1F93182FE3DFCA
:107FE0001150E9F7F2DF1F91089580E0E8DFEE27F6
:047FF000FF270994CA
:027FFE00040479
:00000001FF
