:100000000C94D5000C94FD000C94FD000C94FD00A4
:100010000C94FD000C94FD000C94FD000C94FD006C
:100020000C94FD000C94FD000C94FD000C94FD005C
:100030000C94FD000C94FD000C94FD000C94FD004C
:100040000C94D6100C94FD000C9446110C942011C5
:100050000C94FD000C94FD000C94FD000C94FD002C
:100060000C94FD000C94FD0052657475726E696EFF
:100070006720746F2050726576696F7573204D6FBD
:100080006465204661696C7572652E2E2E0053657D
:100090007474696E6720426175647261746520537F
:1000A00075636365737366756C2100456E74657264
:1000B000696E6720436F6E66696775726174696FF8
:1000C0006E204D6F64652053756363657373667549
:1000D0006C2100456E746572696E6720436F6E66B1
:1000E000696775726174696F6E204D6F6465204633
:1000F00061696C7572652E2E2E004D43503235317C
:10010000352072656164793A203530306B627073E6
:10011000004D435032353135206E6F726D616C2069
:100120006D6F6465206661696C65642C20636F6423
:10013000653D004D43503235313520696E6974207C
:100140006661696C65642C20636F64653D00000026
:100150000000240027002A000000000025002800DD
:100160002B000000000023002600290004040404E2
:100170000404040402020202020203030303030351
:10018000010204081020408001020408102001022E
:10019000040810200000000800020100000304070A
:1001A0000000000000000000781111241FBECFEFF6
:1001B000D8E0DEBFCDBF11E0A0E0B1E0E8E2FBE3B4
:1001C00002C005900D92AE33B107D9F722E0AEE33D
:1001D000B1E001C01D92A438B207E1F710E0C5ED0F
:1001E000D0E004C02197FE010E941E1BC43DD10730
:1001F000C9F70E94EF120C94921D0C9400008F928C
:100200009F92AF92BF92CF92DF92EF92FF920F93A5
:100210001F93CF93DF938B01D82FC92F9B01482FBA
:10022000592F609140027091410280914202909159
:1002300043020E94B118882309F43EC08090440212
:1002400090904502A0904602B0904702750164016B
:10025000F7FAF094F7F8F094A7019601B8018D2F02
:100260009C2F0E94B11887FD0EC0A5019401B80112
:100270008D2F9C2F0E94101A7501640118161CF016
:100280006801ED2EFC2E20E030E0A901C701B60187
:100290000E94B11881111DC010922B0210922C02E5
:1002A00010922D0210922E02C0924002D092410272
:1002B000E0924202F0924302DF91CF911F910F91A1
:1002C000FF90EF90DF90CF90BF90AF909F908F9076
:1002D0000895A701960160E074E284E799E40E9422
:1002E000B6189F770E942F1960932B0270932C02EF
:1002F00080932D0290932E02C1E020E030E0A9010E
:10030000C701B6010E94101A18160CF0C0E0C09385
:100310002A02CACF8CBD9DBD0895833081F028F498
:10032000813099F08230A9F008958730A9F08830A3
:10033000C9F08430B1F4809180008F7D03C080913A
:1003400080008F7780938000089584B58F7784BD77
:10035000089584B58F7DFBCF8091B0008F77809317
:10036000B00008958091B0008F7DF9CFCF93DF93D7
:10037000E7E9F1E08491E3E8F1E0D491EFE6F1E020
:10038000C491CC23A1F081110E948D01EC2FF0E0EB
:10039000EE0FFF1FEE59FE4FA591B491EC91ED23A6
:1003A00081E090E009F480E0DF91CF91089580E052
:1003B00090E0FACF1F93CF93DF93282F30E0F9011D
:1003C000EC56FE4F8491F901E058FE4FD491F901AB
:1003D000E459FE4FC491CC23A9F0162F81110E943D
:1003E0008D01EC2FF0E0EE0FFF1FE85AFE4FA591B4
:1003F000B4918FB7F894EC91111108C0D095DE2319
:10040000DC938FBFDF91CF911F910895DE2BF8CF42
:10041000CF93DF9390E0FC01E058FE4F2491845984
:100420009E4FFC0184918823D1F090E0880F991FA2
:10043000FC01E25BFE4FA591B491FC01E85AFE4F2E
:10044000C591D491623071F49FB7F8943C91822F9A
:10045000809583238C93E8812E2B28839FBFDF9187
:10046000CF9108958FB7F894EC912E2B2C938FBFDA
:10047000F6CF3FB7F8948091860190918701A091C3
:100480008801B091890126B5A89B05C02F3F19F0BE
:100490000196A11DB11D3FBFBA2FA92F982F882704
:1004A000BC01CD01620F711D811D911D42E0660FDF
:1004B000771F881F991F4A95D1F708952FB7F89491
:1004C00060918201709183018091840190918501F6
:1004D0002FBF0895AF92BF92CF92DF92EF92FF921B
:1004E0000F931F93CF93DF936C017B018B01040F5C
:1004F000151FEB015E01AE18BF08C017D10759F0F8
:100500006991D601ED91FC910190F081E02DC60139
:100510000995892B79F7C501DF91CF911F910F9133
:10052000FF90EF90DF90CF90BF90AF900895FC01C7
:10053000538D448D252F30E0842F90E0821B930B48
:10054000541710F0CF96089501970895FC01918DEE
:10055000828D981761F0A28DAE0FBF2FB11D5D96F1
:100560008C91928D9F5F9F73928F90E008958FEF93
:100570009FEF0895FC01918D828D981731F0828D47
:10058000E80FF11D858D90E008958FEF9FEF08959E
:10059000FC01918D228D892F90E0805C9F4F821B02
:1005A00091098F73992708958AE891E00E94C80203
:1005B00021E0892B09F420E0822F089580E090E06B
:1005C000892B29F00E94D40281110C940000089517
:1005D000FC01A48DA80FB92FB11DA35ABF4F2C91B8
:1005E000848D90E001968F739927848FA689B789AF
:1005F0002C93A089B1898C91837080648C93938DA6
:10060000848D981306C00288F389E02D80818F7D48
:1006100080830895EF92FF920F931F93CF93DF9300
:10062000EC0181E0888F9B8D8C8D98131AC0E8892E
:10063000F989808185FF15C09FB7F894EE89FF89FD
:100640006083E889F98980818370806480839FBF9B
:1006500081E090E0DF91CF911F910F91FF90EF909B
:100660000895F62E0B8D10E00F5F1F4F0F731127AB
:10067000E02E8C8D8E110CC00FB607FCFACFE889E6
:10068000F989808185FFF5CFCE010E94E802F1CF84
:10069000EB8DEC0FFD2FF11DE35AFF4FF0829FB75A
:1006A000F8940B8FEA89FB8980818062CFCF0F930A
:1006B0001F93CF93DF938C01D0E0C0E0F801EC0FE3
:1006C000FD1F6491662341F08AE891E00E940A03CD
:1006D000892B11F02196F2CFCE01DF91CF911F919E
:1006E0000F910895CF93DF93EC01888D8823B9F0A3
:1006F000AA89BB89E889F9898C9185FD03C080812D
:1007000086FD0DC00FB607FCF7CF8C9185FFF2CFA9
:10071000808185FFEDCFCE010E94E802E9CFDF9115
:10072000CF910895CF93DF93FC012781222359F1C4
:10073000EC0161E080850E94080261E089850E94E9
:1007400008028F81843011F08830B1F461E08A852D
:100750000E94080261E08B850E9408028FA58F3FEE
:1007600091F061E00E9408026EA581E068278FA5E4
:10077000DF91CF910C94DA01833011F0863071F75C
:1007800061E08A85E9CFDF91CF910895CF93DF9320
:10079000FC0127812223A9F0EC010190F081E02DDA
:1007A0000284F385E02D60E009958FA58F3F49F025
:1007B00061E00E9408026EA58FA5DF91CF910C9495
:1007C000DA01DF91CF910895DC01ED91FC91228552
:1007D00033854770552766277727415051096109AE
:1007E0007109473051056105710560F4FA01E55062
:1007F000FC4F0C941E1B0504070409040B040D0494
:100800000F04110461E0F901099465E0FCCF64E094
:10081000FACF66E0F8CF62E0F6CF6AE0F4CF68E0A6
:10082000F2CF69E0F0CFCF93DF93EC01CB01BA01B7
:1008300026E030E040E050E00E94FF1A623071058F
:100840008105910589F16CF46115710581059105AA
:10085000D1F06130710581059105F9F0DF91CF91FB
:100860000895643071058105910561F124F16530C9
:1008700071058105910591F7E881F9810284F3857D
:10088000E02D66E006C0E881F9810284F385E02D61
:1008900064E0CE01DF91CF910994E881F98102846F
:1008A000F385E02D65E0F5CFE881F9810284F385D9
:1008B000E02D61E0EECFE881F9810284F385E02D3F
:1008C00063E0E7CFE881F9810284F385E02D62E0FF
:1008D000E0CFDC01ED91FC910284F385E02D4370C3
:1008E000552766277727423051056105710571F05C
:1008F000433051056105710559F0413051056105DD
:10090000710511F065E0099466E0FDCF6AE0FBCF68
:1009100069E0F9CFCF93DF93EC01CB01BA0123E07B
:1009200030E040E050E00E94FF1A6130710581051F
:10093000910599F06230710581059105A9F0672B49
:10094000682B692BC1F4E881F9810284F385E02DDD
:1009500064E0CE01DF91CF910994E881F9810284AE
:10096000F385E02D61E0F5CFE881F9810284F3851C
:10097000E02D62E0EECFDF91CF910895DC01ED91A3
:10098000FC910284F385E02D437055276627772775
:10099000423051056105710571F043305105610523
:1009A000710559F0413051056105710511F062E0A2
:1009B000099463E0FDCF61E0FBCF60E0F9CFCF9316
:1009C000DF93EC01E881F9810284F385E02D8A81CF
:1009D00060E0811162E0CE010995E881F98102842D
:1009E000F385E02D8A8161E0811163E0CE010995F4
:1009F0008CA59DA58230910538F0880F991F880F2E
:100A0000991F05970197F1F7E881F9810284F38531
:100A1000E02D8A8160E0811162E0CE01DF91CF910B
:100A20000994CF93DF93EC0120E030E0A901688DB9
:100A3000798D8A8D9B8D0E94101A18162CF4E8A9C6
:100A4000F9A9DF91CF910994EAA9FBA9FACFCF9236
:100A5000DF92EF92FF920F931F93CF93DF93DC010E
:100A60001796CC91C43039F0C83059F1C33019F021
:100A7000C63049F1C2E08C01085F1F4FF12CE12C18
:100A8000C62ED12CD1E0F8016481C6010E2C02C023
:100A9000959587950A94E2F780FD6D270F5F1F4FAC
:100AA00080810E94DA01BFEFEB1AFB0AEC1658F3C3
:100AB000DF91CF911F910F91FF90EF90DF90CF903A
:100AC0000895C4E0D8CFC3E0D6CFDC011796EC91EF
:100AD0001797E93008F038C0F0E0EF58FA4F0C945F
:100AE0001E1B7A05800586058C059205A4059805D0
:100AF000A4059E05ED91FC910684F785E02D0994EF
:100B0000ED91FC910088F189E02DF9CFED91FC91F8
:100B10000288F389E02DF3CFED91FC910488F589EB
:100B2000E02DEDCFED91FC910688F789E02DE7CF20
:100B3000ED91FC91008CF18DE02DE1CFED91FC91D8
:100B4000028CF38DE02DDBCF0895CF92DF92EF92F0
:100B5000FF920E9439026B017C01809150029091BA
:100B60005102A0915202B0915302B701A601481B55
:100B7000590B6A0B7B0B80912B0290912C02A09158
:100B80002D02B0912E02481759076A077B07A8F17A
:100B90008091380290913902A0913A02B0913B02C3
:100BA00020912A02222329F10196A11DB11D8093D3
:100BB000380290933902A0933A02B0933B024091DD
:100BC00038025091390260913A0270913B0288E2FA
:100BD00092E00E946505C0925002D0925102E092CC
:100BE0005202F092530281E0FF90EF90DF90CF909D
:100BF00008950197A109B109DACF80E0F5CF4F92AE
:100C00005F926F927F928F929F92AF92BF92CF929C
:100C1000DF92EF92FF920F931F93CF93DF93EC013C
:100C2000CC88DD88EE88FF8888899989AA89BB8964
:100C3000C81AD90AEA0AFB0A688D798D8A8D9B8DBC
:100C40009B01AC010E94151A4B015C0168A179A1BE
:100C50008AA19BA19B01AC010E9445189B01AC019C
:100C6000C501B4010E94B6180E942819C114D1040C
:100C7000E104F10409F0B6C0623071058105910507
:100C80000CF0D0C01B821C821D821E82188E198E11
:100C90001A8E1B8E1CAA1DAA1EAA1FAAC12CD12CFB
:100CA0007601C701B601DF91CF911F910F91FF909F
:100CB000EF90DF90CF90BF90AF909F908F907F90FC
:100CC0006F905F904F90089510161106120613064C
:100CD000B4F46C157D058E059F051CF42A81211145
:100CE000A1C09B01AC0188279927DC01821B930BD3
:100CF000A40BB50B8CAB9DABAEABBFAB93C00115DA
:100D000011052105310509F48DC06C157D058E0591
:100D10009F050CF087C08A81882309F483C0309531
:100D20002095109501951F4F2F4F3F4F0CAB1DABDA
:100D30002EAB3FAB77C0011511052105310509F434
:100D400071C08824992454018C189D08AE08BF08EE
:100D5000681579058A059B050CF064C08A818111AC
:100D600061C0DDCFCCACDDACEEACFFACA701960131
:100D7000C701B6010E9445182B013C01C501B40111
:100D80000E94601920E030E040E850E40E94151A0B
:100D900020E030E040E85FE30E9445189B01AC0191
:100DA000C301B2010E94B6189B01AC01C701B60194
:100DB0000E9444183B016C01FE01E05CFF4FE080A3
:100DC000F180028113819701A8010E94101A181660
:100DD00014F473018601C701D8018CAF9DAFAEAF8B
:100DE000BFAF3AC00CA91DA92EA93FA91C141D0410
:100DF0001E041F040CF468CF101611061206130609
:100E00000CF099CF0027112798010C191D092E0904
:100E10003F0960177107820793070CF062CF2A81A0
:100E200021115FCF8CA89DA8AEA8BFA88114910402
:100E3000A104B10409F096CF88AD99ADAAADBBADC0
:100E40008CAF9DAFAEAFBFAF81E01C141D041E047C
:100E50001F040CF080E08A833FEF831A930AA30AF1
:100E6000B30A8CAA9DAAAEAABFAA8CAC9DACAEACAC
:100E7000BFACC501B4010E942F196B017C01CB826C
:100E8000DC82ED82FE82A501940160E074E284E7D9
:100E900099E40E94B618688F798F8A8F9B8F2A8178
:100EA0002111FFCE9058688F798F8A8F9B8FF9CE52
:100EB0000F931F9300913C0210913D0220913E023E
:100EC00030913F02061717072807390771F0609322
:100ED0003C0270933D0280933E0290933F0288E271
:100EE00092E01F910F910C94FF051F910F910895AF
:100EF000CF92DF92EF92FF92CF93DF93C8E2D2E0DE
:100F0000688D798D8A8D9B8D9B01AC010E94151A8D
:100F10006B017C0168A179A18AA19BA19B01AC0115
:100F20000E9445189B01AC01C701B6010E94B6188A
:100F30000E9428196CAB7DAB8EAB9FABCE01DF91CD
:100F4000CF91FF90EF90DF90CF900C94FF05089524
:100F500008958EBD00000DB407FEFDCF8EB5089537
:100F60001F93CF93DF93182F80E591E00E948A01B1
:100F7000CCE6D2E060E08A890E94DA0183E00E9438
:100F8000A907812F0E94A90780E00E94A907182FB6
:100F900061E08A890E94DA01812FDF91CF911F9150
:100FA0000895FF920F931F93CF93DF93F82E062F90
:100FB000142F80E591E00E948A01CCE6D2E060E047
:100FC0008A890E94DA0185E00E94A9078F2D0E947C
:100FD000A907802F0E94A907812F0E94A90761E01D
:100FE0008A89DF91CF911F910F91FF900C94DA01C4
:100FF000CF93DF93C82F0E945E02D62F4C2F60EE56
:101000008FE00E94D1078EE00E94B007807EC81753
:1010100049F00E945E026D1B693C80F381E0DF9124
:10102000CF91089580E0FBCFCF93DF93C82F8EE060
:101030000E94B007807E8032F9F4C032E9F08BE282
:101040000E94B007D82FD07486FD05C040E460E44C
:101050008BE20E94D10740E460E48CE20E94D10759
:1010600080E60E94F807811111C0D11105C040E04F
:1010700060E48BE20E94D10740E060E48CE20E94D1
:10108000D1078C2FDF91CF910C94F80781E0DF918D
:10109000CF910895FF920F931F93CF93DF93C82FA3
:1010A000F62E172F042F80E591E00E948A0160E060
:1010B00080917E020E94DA0182E00E94A9078C2FB3
:1010C0000E94A907CF2DD12F0C0F1D2F111DC01766
:1010D000D10721F089910E94A907F9CF61E08091A1
:1010E0007E02DF91CF911F910F91FF900C94DA0156
:1010F000CF93DF9300D000D0CDB7DEB71C821B8228
:10110000613081F498E09A83198244E0BE016F5FF8
:101110007F4F0E944A080F900F900F900F90DF9121
:10112000CF9108951A82F0CF0F931F93CF93DF933F
:10113000082F162F80E591E00E948A01CCE6D2E0CC
:1011400060E08A890E94DA0182E00E94A907802F6C
:101150000E94A907812F0E94A90761E08A89DF9177
:10116000CF911F910F910C94DA012F923F924F92E1
:101170005F926F927F928F929F92AF92CF92DF9207
:10118000EF92FF920F931F93CF93DF9300D000D085
:10119000CDB7DEB70E9439022B013C0180900601D9
:1011A00090900701A09008011E0124E0220E311C3E
:1011B00089829A82AB82CE0101966C01F82E0D2DA8
:1011C000F60111916F01812F0E94B00783FD14C0B9
:1011D0001F5FE12C0E943902DC01CB0184199509C3
:1011E000A609B709F2E0EF120EC0843C9940A105B0
:1011F000B105F0F206E07DC0C214D30409F710E097
:1012000072E0E72EE7CF843C9940A105B10590F745
:101210004091710262E772E085E0810F0E944A0806
:1012200080917A02813029F48091710280648093E8
:1012300071026091710284E0810F0E9494084091D4
:101240006D0250916E0260916F02709170028091F8
:101250006C028130D9F54C835B83AB01662777271D
:10126000842F83708860942F990F990F990F907E27
:10127000892B8A8365E0569547956A95E1F74983FE
:1012800044E06F2D702F812F0E944A08115048E0D2
:1012900068E0812F0E94D1070E9439026B017C0116
:1012A000812F0E94B007082F08700E943902DC01CC
:1012B000CB018C199D09AE09BF090023A9F0843C1C
:1012C0009940A105B10560F307E013C0CA0123E00E
:1012D000969587952A95E1F789834295440F407E3C
:1012E0004A831C821B82CCCF843C9940A105B10566
:1012F00058F7802F0F900F900F900F90DF91CF91A4
:101300001F910F91FF90EF90DF90CF90AF909F9043
:101310008F907F906F905F904F903F902F900895A7
:10132000FF920F931F93CF93DF93C82FF62E172FA3
:10133000042F80E591E00E948A0160E080917E02A6
:101340000E94DA0183E00E94A9078C2F0E94A9075E
:10135000CF2DD12F0C0F1D2F111DC017D10729F034
:1013600080E00E94A9078993F8CF61E080917E0216
:10137000DF91CF911F910F91FF900C94DA010F93A1
:101380001F93CF93DF9300D000D0CDB7DEB7182FD7
:1013900010926C0210926D0210926E0210926F0207
:1013A0001092700244E0BE016F5F7F4F0E9490096F
:1013B0002A81898138E0839FC0011124422F50E0A7
:1013C00065E0559547956A95E1F7840F951F092EBD
:1013D000000CAA0BBB0B80936D0290936E02A0933E
:1013E0006F02B093700223FF29C032E0880F991F6B
:1013F000AA1FBB1F3A95D1F72370820F911DA11D23
:10140000B11DBA2FA92F982F88272B81820F911DEC
:10141000A11DB11DBA2FA92F982F88272C81820FCB
:10142000911DA11DB11D80936D0290936E02A0933A
:101430006F02B093700281E080936C028FEF810F96
:101440000E94B007082F84E0810F0E94B00703FFBD
:1014500016C091E090937A02482F4F70409371022A
:1014600062E772E085E0810F0E9490090F900F9073
:101470000F900F90DF91CF911F910F9108951092CF
:101480007A02EACF1F93CF93DF9380E591E00E9429
:101490008A01CCE6D2E060E08A890E94DA0180EA23
:1014A0000E94A90780E00E94A907182F61E08A899D
:1014B0000E94DA01812FDF91CF911F910895AF92A1
:1014C000BF92CF92DF92EF92FF920F931F93CF9331
:1014D000DF93CDB7DEB728970FB6F894DEBF0FBE07
:1014E000CDBFFE01339686E0DF011D928A95E9F7B4
:1014F00060915C0170915D0180915E0190915F014E
:1015000020EA3CE840E050E00E942F1BA0E00E944F
:10151000491C0CF455C03C544F4F5F4F6F4F7F4FE9
:101520008F4F9F4FA12CE8E6BE2ECC24C394D12C24
:10153000E12CF12C00E010E00E946B1BC901DA01E4
:10154000811540E89407A105B1050CF041C0811553
:1015500040E894074FEFA407B407ECF189833A837E
:1015600082E093E0A0E0B0E080936D0290936E0281
:10157000A0936F02B093700210927A0210926C02E4
:1015800088E080937102FE013196A2E7B2E0CE01BD
:10159000099621912D93E817F907D9F728960FB6E8
:1015A000F894DEBF0FBECDBFDF91CF911F910F9199
:1015B000FF90EF90DF90CF90BF90AF900C94B50864
:1015C000345B410951096109710981099109AACF67
:1015D0008FEF3FE7C3CF80E030E8C0CF1F93CF93BA
:1015E000DF9311E010934A01C0E6D1E08B81809334
:1015F000490110924F0160915C0170915D018091F1
:101600005E0190915F01609358017093590180933E
:101610005A0190935B010E94580760E070E0CB0193
:101620000E94FF0010925401109255011092560131
:1016300010925701188219821A8210934E0110934A
:101640007201DF91CF911F910895CF93DF93CDB7B2
:10165000DEB728970FB6F894DEBF0FBECDBF9091CE
:101660008001992399F193E099838A836B834C835A
:1016700080914E018D831E822F83388782E094E013
:10168000A0E0B0E080936D0290936E02A0936F0291
:10169000B093700210927A0210926C0288E08093EC
:1016A0007102FE013196A2E7B2E0CE0109962191C6
:1016B0002D93E817F907D9F728960FB6F894DEBFEF
:1016C0000FBECDBFDF91CF910C94B50828960FB611
:1016D000F894DEBF0FBECDBFDF91CF910895CF92BA
:1016E000DF92EF92FF921F93CF93DF93CDB7DEB7D8
:1016F00028970FB6F894DEBF0FBECDBF8091800152
:10170000882309F4A0C080914E018983309148015B
:101710003A8320917B01922F21111BC090914F01A0
:101720009923B9F091E0C0905C01D0905D01E09008
:101730005E01F0905F014091580150915901609114
:101740005A0170915B01C416D506E606F70609F446
:1017500090E010914B014091460141111FC080E083
:10176000911129C029C0211127C0C0905C01D090DF
:101770005D01E0905E01F0905F0140915801509151
:10178000590160915A0170915B01C416D506E606B5
:10179000F70691F4886010C080E01FC0112341F06B
:1017A00040914701411104C0843011F083E03111B0
:1017B00081E09923C1F284608B831C820E94B60170
:1017C00021E0892B09F020E02D83809160018111B7
:1017D000E3CF80914F0191E089278E831F83809111
:1017E0003E0191E0980F90933E01888782E092E05D
:1017F000A0E0B0E080936D0290936E02A0936F0220
:10180000B093700210927A0210926C0288E080937A
:101810007102FE013196A2E7B2E0CE010996219154
:101820002D93E817F907D9F728960FB6F894DEBF7D
:101830000FBECDBFDF91CF911F91FF90EF90DF9052
:10184000CF900C94B50828960FB6F894DEBF0FBE63
:10185000CDBFDF91CF911F91FF90EF90DF90CF90A0
:10186000089580914B01882381F080914701811177
:101870000BC090914801911108C090917B0191118A
:1018800004C080914601089580E008958091380257
:1018900090913902A0913A02B0913B0280935C0191
:1018A00090935D01A0935E01B0935F0108950E9443
:1018B000460CE0E6F1E010821182128210924F0194
:1018C00060915C0170915D0180915E0190915F017A
:1018D000609358017093590180935A0190935B0172
:1018E0000E94580760E070E0CB010E94FF00109258
:1018F000540110925501109256011092570108950B
:1019000080917B01882309F488C080914B01882352
:1019100041F080914701811104C0809148018823E2
:1019200029F00E94570C10927B010895809140018C
:10193000882309F459C080E096EAAFEFBFEF8093A7
:10194000380290933902A0933A02B0933B028093FD
:101950003C0290933D02A0933E02B0933F0210924E
:101960005C0210925D0210925E0210925F02109271
:101970002B0210922C0210922D0210922E02109225
:101980004002109241021092420210924302809350
:101990005C0190935D01A0935E01B0935F01809321
:1019A000580190935901A0935A01B0935B0160E0F4
:1019B00076EA8FEF9FEF0E94580760E070E0CB015E
:1019C0000E94FF001092600110926101109262016A
:1019D00010924F0110927B0181E080934601809329
:1019E0004E0180937201089582E080934E0160E081
:1019F00070E48CE994EC0E94FF0080912B0290919E
:101A00002C02A0912D02B0912E02892B8A2B8B2BB8
:101A100011F00E94A5050C94460C0895CF93C82F91
:101A20000E94570C10927B01C0934801809147019E
:101A3000882341F085E080934E0181E0809372011C
:101A4000CF91089584E0F7CFFC01E60FF11D81915D
:101A5000811105C06F5F6830D1F781E0089580E0A3
:101A600008954F925F926F927F92AF92BF92CF9202
:101A7000DF92EF92FF920F931F93CF93DF93CDB737
:101A8000DEB72D970FB6F894DEBF0FBECDBF8091A5
:101A90004B01882309F4C2C1809147018111BEC165
:101AA000809148018111BAC180917B018111B6C139
:101AB00080914F01882309F4B1C10E94460CE09047
:101AC0005C01F0905D0100915E0110915F01E9827F
:101AD000FA820B831C8300915801109159012091C7
:101AE0005A0130915B010D831E832F8338878981D2
:101AF0009A81AB81BC8180179107A207B30791F54A
:101B00000E945E0200916A0110916B0120916C01AC
:101B100030916D01AB01BC01401B510B620B730B8B
:101B20008091680190916901B0E0A0E048175907E1
:101B30006A077B0708F472C12D960FB6F894DEBFD2
:101B40000FBECDBFDF91CF911F910F91FF90EF900E
:101B5000DF90CF90BF90AF907F906F905F904F904D
:101B60000C94EE0A0E945E02009150011091510106
:101B7000209152013091530160177107820793073A
:101B800009F4B8C02B013C01401A510A620A730AD9
:101B9000A5E14A1651046104710428F0F4E14F2EC6
:101BA000512C612C712C60935001709351018093E2
:101BB0005201909353012D813E814F815885CD80F4
:101BC000DE80EF80F884FF0CCC08DC2C76016C2DD5
:101BD0007C2D8C2D9C2DA980BA80CB80DC80E98067
:101BE000FA800B811C81110FEE08FE2C8701E9861B
:101BF000FA860B871C87E984FE2C0E2D1E2D0E9471
:101C0000401C9D872987B32FF42FE52FA0E00E9469
:101C1000491C34F40E94F91B2987B32FF42FE52FB8
:101C200069857B2F8F2F9E2F0E945E1920E030E068
:101C30004AE754E40E94151A0E94881A6B017C013D
:101C400000916E0110916F01209170012D873091EC
:101C50007101398798014D8559850E94B11887FF18
:101C600003C08601ED86F986C301B2010E945E19A8
:101C700020E030E04AE754E40E94B61820E030E06B
:101C80004AEF53E40E94151A6B017C014090540105
:101C900050905501609056017090570198014D8504
:101CA0005985C301B2010E94B11887FF4DC0A3013D
:101CB0009201C701B6010E9445186B017C01AC017D
:101CC0009B01B8018D8599850E94B11887FD57C089
:101CD000C0925401D0925501E0925601F092570102
:101CE0006091540170915501809156019091570176
:101CF0000E94FF0089819A81AB81BC81ED80FE80CA
:101D00000F811885E816F9060A071B070CF043C077
:101D100080914001882309F43EC082E02D960FB6E1
:101D2000F894DEBF0FBECDBFDF91CF911F910F9111
:101D3000FF90EF90DF90CF90BF90AF907F906F902B
:101D40005F904F900C940E0D98014D855985C301FD
:101D5000B2010E94101A18161CF6A7019601C301C1
:101D6000B2010E9444186B017C01AC019B01B801D7
:101D70008D8599850E94101A18160CF0A9CFC801FC
:101D8000AD85B9858093540190935501A093560178
:101D9000B0935701A5CF40913C0250913D02609114
:101DA0003E0270913F028091380290913902A091D9
:101DB0003A02B0913B02481759076A077B07B1F016
:101DC00084179507A607B707F4F581E080932A02E8
:101DD00080912B0290912C02A0912D02B0912E02A5
:101DE000892B8A2B8B2B11F00E94A5050E94460C93
:101DF00040915C0150915D0160915E0170915F01C5
:101E00008091580190915901A0915A01B0915B01C4
:101E1000481759076A077B0709F472CE2D960FB64B
:101E2000F894DEBF0FBECDBFDF91CF911F910F9110
:101E3000FF90EF90DF90CF90BF90AF907F906F902A
:101E40005F904F90089510922A02C2CF8F929F9276
:101E5000AF92BF920F931F93CF93DF93CDB7DEB7AF
:101E6000A1970FB6F894DEBF0FBECDBF19A24230C6
:101E700008F44AE08E010F5D1F4F842E912CB12C87
:101E8000A12CA50194010E94DD1AE62FB901CA0117
:101E9000EA3044F5E05DD801EE938D01232B242B2D
:101EA000252B79F790E080E0109769F0FD01019013
:101EB0000020E9F73197AF014A1B5B0BBD018AE8AF
:101EC00091E00E946A02A1960FB6F894DEBF0FBEA1
:101ED000CDBFDF91CF911F910F91BF90AF909F9099
:101EE0008F900895E95CD7CF42E050E06BE371E05A
:101EF0008AE891E00C946A02CF93DF930E94570323
:101F0000EC010E94740F8C0F9D1FDF91CF910895FB
:101F10000C94091D8F929F92AF92BF92CF92DF9245
:101F2000EF92FF92CF930E945E0260937C017093C8
:101F30007D0180937E0190937F01CFB7F8948091CB
:101F40003F01811127C0E6E7F1E08491EAE8F1E082
:101F50009491E82FF0E0EE0FFF1FE25BFE4FA5919A
:101F6000B491EC91E92321F461E08AE00E94DA0166
:101F700061E08AE00E9408028CB580618CBD8CB55E
:101F800080648CBD61E08DE00E94080261E08BE01E
:101F90000E94080280913F018F5F80933F01CFBF75
:101FA00080E591E00E948A0160E080917E020E94BB
:101FB000DA0180EC0E94A90761E080917E020E9414
:101FC000DA010E9439026B017C0185E0882E912C98
:101FD000A12CB12C0E9439026C197D098E099F0930
:101FE000683E734081059105A8F321E0821A9108AB
:101FF000A108B10888EEC80E83E0D81EE11CF11CD0
:1020000081149104A104B10429F780E480937F0234
:1020100080E80E9414088823D9F083ED90E00E94A4
:102020007C0F1092800183E08093480184E08093CC
:102030004E0183E391E00E9457034AE061E070E0C3
:1020400080E090E00E94260F0E94740FC0E085C0DF
:102050008BEA90E00E947C0F60E08AE20E94940884
:1020600061ED89E20E94940861E888E20E94940888
:102070008EE890E00E947C0F61E080E20E94780888
:1020800061E084E20E94780861E080E00E947808C4
:1020900060E084E00E94780861E088E00E947808AF
:1020A00060E080E10E94780861E084E10E947808A5
:1020B00060E088E10E947808C0E360E08C2F0E9415
:1020C000940860E080E18C0F0E94940860E080E258
:1020D0008C0F0E949408CF5FCE3379F760E080E6E2
:1020E0000E94940860E080E70E94940863E08BE21D
:1020F0000E9494086CE38CE00E94940860E08DE0FC
:102100000E94940844E664E680E60E94D10740E617
:1021100060E680E70E94D10780917F020E94140848
:10212000882351F188E690E07ACF81E080938001A6
:102130001092480180914B0181111AC086E0809372
:102140004E018AEF90E00E947C0F0E946F0BC091BD
:102150008001CC2379F00E945F0A8C2FCF91FF90F1
:10216000EF90DF90CF90BF90AF909F908F900895A9
:1021700081E0E5CFC1E0F1CF10927F0280E00E94C4
:102180001408C82F882389F21092800183E080937D
:10219000480184E080934E0181E191E00E94570361
:1021A0006C2F70E090E080E04AE04CCF1F920F92DD
:1021B0000FB60F9211242F933F938F939F93AF935A
:1021C000BF938091820190918301A0918401B0918D
:1021D00085013091810123E0230F2D3758F50196B9
:1021E000A11DB11D209381018093820190938301F1
:1021F000A0938401B093850180918601909187011D
:10220000A0918801B09189010196A11DB11D809313
:10221000860190938701A0938801B0938901BF91B3
:10222000AF919F918F913F912F910F900FBE0F9083
:102230001F90189526E8230F0296A11DB11DD2CF3D
:102240001F920F920FB60F9211242F933F934F932B
:102250005F936F937F938F939F93AF93BF93EF930E
:10226000FF938AE891E00E94E802FF91EF91BF910D
:10227000AF919F918F917F916F915F914F913F911E
:102280002F910F900FBE0F901F9018951F920F92D5
:102290000FB60F9211242F938F939F93EF93FF9379
:1022A000E0919A01F0919B018081E091A001F09171
:1022B000A10182FD1BC090818091A3018F5F8F736C
:1022C0002091A401821741F0E091A301F0E0E657CC
:1022D000FE4F958F8093A301FF91EF919F918F9176
:1022E0002F910F900FBE0F901F9018958081F4CF03
:1022F0008F929F92AF92BF92CF92DF92EF92FF9216
:1023000010928D0110928C0188EE93E0A0E0B0E075
:1023100080938E0190938F01A0939001B0939101CF
:102320008DE091E090938B0180938A0185EC90E0A1
:10233000909397018093960184EC90E0909399019B
:102340008093980180EC90E090939B0180939A0198
:1023500081EC90E090939D0180939C0182EC90E051
:1023600090939F0180939E0186EC90E09093A10151
:102370008093A0011092A3011092A4011092A501D4
:102380001092A6018AE080937E0261E00E94DA0149
:1023900061E080917E020E94080287E292E09093C1
:1023A0007D0280937C028FE191E0909329028093DB
:1023B000280281E080932F02109238021092390295
:1023C00010923A0210923B0210923C0210923D028F
:1023D00010923E0210923F0210924002109241026F
:1023E000109242021092430210924402109245024F
:1023F000109246021092470210924802109249022F
:1024000010924A0210924B02C12CD12C80E8E82E87
:102410008FE3F82EC0924C02D0924D02E0924E0211
:10242000F0924F0210922B0210922C0210922D0269
:1024300010922E0281E090E0909355028093540216
:102440008FEF809357021092500210925102109217
:1024500052021092530286E08093300287E080930C
:10246000310284E08093320285E08093330210923F
:10247000560210925C0210925D0210925E0210925F
:102480005F0210926002109261021092620210923A
:10249000630210926402109265021092660210921A
:1024A0006702C0926802D0926902E0926A02F092DA
:1024B0006B0210922A02109234021092350210928E
:1024C00036021092370288E292E00E9492038090D6
:1024D000480290904902A0904A02B0904B02A70196
:1024E0009601C501B4010E94B118882381F1609161
:1024F0005C0270915D0280915E0290915F020E9489
:102500006019A50194010E94151A0E942819609370
:102510005C0270935D0280935E0290935F0286E896
:1025200096E6A9E6B9E48093600290936102A093D5
:102530006202B0936302C0924802D0924902E092D4
:102540004A02F0924B0288E292E00E94FF0520E0EE
:1025500030E040E85FE36091440270914502809171
:102560004602909147020E94B118882379F180E0D9
:1025700090E0A0E8BFE38093440290934502A093CB
:102580004602B093470280E094E2A4E7B9E4809366
:10259000680290936902A0936A02B0936B028091E3
:1025A0005C0290915D02A0915E02B0915F021816EC
:1025B00019061A061B0654F4FF90EF90DF90CF9097
:1025C000BF90AF909F908F900C947807FF90EF9002
:1025D000DF90CF90BF90AF909F908F900895CF9352
:1025E000DF93CDB7DEB76A970FB6F894DEBF0FBEA4
:1025F000CDBF789484B5826084BD84B5816084BD8C
:1026000085B5826085BD85B5816085BD80916E0090
:10261000816080936E0010928100809181008260C1
:1026200080938100809181008160809381008091FE
:1026300080008160809380008091B10084608093ED
:10264000B1008091B00081608093B00080917A00E9
:10265000846080937A0080917A00826080937A000F
:1026600080917A00816080937A0080917A008068FE
:1026700080937A001092C100E0919A01F0919B0141
:1026800082E08083E0919601F09197011082E091C1
:102690009801F091990180E180831092A201E0916C
:1026A0009E01F0919F0186E08083E0919C01F09172
:1026B0009D01808180618083E0919C01F0919D016A
:1026C000808188608083E0919C01F0919D018081F0
:1026D00080688083E0919C01F0919D0180818F7DD5
:1026E000808361E086E00E94080261E087E00E944A
:1026F000080261E088E00E94080262E083E00E9434
:10270000080262E082E00E94080260E086E00E9427
:10271000DA0160E087E00E94DA0161E088E00E946F
:10272000DA0120E030E04AE754E46091440270911D
:10273000450280914602909147020E94B118882379
:1027400019F180E090E0AAE7B4E48093440290930A
:102750004502A0934602B09347028093680290938B
:102760006902A0936A02B0936B0280915C0290911F
:102770005D02A0915E02B0915F02181619061A065A
:102780001B0614F40E94780785E090E090935502B0
:1027900080935402109238021092390210923A0239
:1027A00010923B0210923C0210923D0210923E02A7
:1027B00010923F0210925C0210925D0210925E0233
:1027C00010925F0210922B0210922C0210922D0296
:1027D00010922E0210924002109241021092420278
:1027E00010924302109258011092590110925A010E
:1027F00010925B010E945E026B017C010E94B60197
:1028000021E0892B09F020E020934501209340012D
:10281000C0924101D0924201E0924301F092440102
:10282000C0927301D0927401E0927501F09276012A
:10283000C0927701D0927801E0927901F0927A010A
:102840000E948A0F9E012F5F3F4F19010E945E0276
:10285000698B7A8B8B8B9C8B80918001811124C03A
:1028600080917C0190917D01A0917E01B0917F01CA
:1028700049895A896B897C89481B590B6A0B7B0BE8
:10288000DB01CA01883E9340A105B10510F00E940A
:102890008A0F60E070E0672BC9F20E94D40288239F
:1028A000A9F20E940000D2CF0E94460C0E94B601FD
:1028B00021E0892B09F020E080914501821771F019
:1028C0002093450169897A898B899C8960934101AC
:1028D00070934201809343019093440180914101A0
:1028E00090914201A0914301B091440149895A89D4
:1028F0006B897C89481B590B6A0B7B0BDB01CA0176
:102900004497A105B10510F02093400155E0598F7F
:10291000698D6150698F662309F4E6C20E94420AFC
:10292000837009F4E1C2D101E8E01D92EA95E9F76C
:102930000E94420A80FF4BC081E60E94BF0940E02E
:1029400061E08CE20E94D10780916C02882389F0BB
:1029500080916D0290916E02A0916F02B091700211
:10296000B06880936D0290936E02A0936F02B09353
:10297000700280917A02882389F080916D02909193
:102980006E02A0916F02B0917002B06480936D02EC
:1029900090936E02A0936F02B0937002C0906D028C
:1029A000D0906E02E0906F02F09070028091710200
:1029B000A2E7B2E0F101282F30E0AF01421953093C
:1029C000421753070CF0F3C29D919193F6CF81FF0C
:1029D00014C081E70E94BF0940E062E0B2CF8830B6
:1029E00049F41981113031F461E0C1010E94240DD4
:1029F00081110BC081E00E940E0D80917B01882324
:102A000009F46FC20E94800C83CF0E94570C109271
:102A10007B0110924B011093470110924801F5E0A1
:102A2000F0934E0161E088E00E94DA011093720198
:102A3000E4CF8111DFCF0E94570C10927B011092DE
:102A40004B0161E088E00E94DA0136E030934E01EC
:102A5000E6C2883079F689818F3F61F68A818111DB
:102A6000C9CF62E0C1010E94240D882319F2809130
:102A70004B01882309F4BECF809147018111BACF61
:102A8000809148018111B6CF0E94570C10924601E7
:102A900051E050937B0182E080934E0160E070E44E
:102AA0008CE994EC0E94FF0061E060937201A5CF75
:102AB00080914B01882321F081E080934E01AFC2C9
:102AC00086E0FBCF883031F030E020E040E060E08D
:102AD00087E06AC00E94460C0E94310C7E808F8085
:102AE0009884811104C0940140E0672DF1CF2981C1
:102AF00027FFF9CF24FFF7CF922F9F74A1F78114FE
:102B0000910489F36A817B818C819D8169877A87B1
:102B10008B879C876B017C01FF0CCC08DC2C760139
:102B2000CD86CE86CF86C88A25FD22C020E038E635
:102B300041E050E00E942F1BE0EAAE2EFCE8BF2EE1
:102B4000C12CD12CE12CF12C00E010E00E946B1B79
:102B500059016A01A986BA86CB86DC86DA01C901E9
:102B6000BB0F880B982FDC018D878E878F87888B12
:102B700089859A85AB85BC85AC01BD01565A6F4FDE
:102B80007F4F4130544B6105710508F0ACCF409147
:102B9000600120914F01211104C020916201222384
:102BA00031F09401672D83E00E94250B26CF41115F
:102BB00035C020914D01222341F020914C01271175
:102BC00004C09401672D85E0EFCF20914A012223B4
:102BD00049F020914901271105C0940141E0672D7A
:102BE00082E0E2CFE1E0E0936001E09361011092C6
:102BF0006201709263018093640190936501A093D8
:102C00006601B09367019092690180926801940116
:102C100041E0672D80E00E94250B01C260916301B5
:102C2000671529F0940141E0672D83E0F4CF2091EE
:102C30006801309169012815390569F40091640132
:102C400010916501209166013091670108171907FD
:102C50002A073B0741F01092600110926101940134
:102C600040E085E0D8CF940141E0672D82E0D3CFEA
:102C70001A81883031F462E0C1010E94240D811173
:102C800004C030E020E040E002C18981813009F0D9
:102C900000C10E94310C90916001882309F4EFC0BB
:102CA000992379F380916101882309F4EBC0809125
:102CB00062018111E7C0F0916301FA8FF113E2C064
:102CC0000E94460C4090640150906501609066013E
:102CD0007090670153014201BB0C8808982C540185
:102CE000E0905C01F0905D0100915E0110915F0148
:102CF000A8019701550F220B322FA9012D8B3E8B76
:102D00004F8B588F9201A301682D782D882D982D17
:102D100057016801ED88FE2C0E2D1E2D0E94401CCF
:102D2000122FB32FF42FE52FA0E00E94491C34F49A
:102D30000E94F91B122FB32FF42FE52FC12EDB2E8B
:102D4000EF2EFE2E00916801109169014801B12C0F
:102D5000A12CA5019801C114D104E104F104A1F052
:102D6000A8EEB3E0A70196012F5F3F4F4F4F5F4F93
:102D70000E94241B615071098109910928EE33E0FA
:102D800040E050E00E94DD1A82169306A406B506C4
:102D900010F449015A0160E070E0CB01C114D10484
:102DA000E104F104B1F0C701B6010E945E1920E010
:102DB00030E04AE754E40E94151A6B017C01C5011A
:102DC000B4010E945E199B01AC01C701B6010E94CB
:102DD000B61860936E0170936F01809370019093A9
:102DE000710120E030E04AE754E40E94101A1816FE
:102DF00064F480E090E0AAE7B4E480936E019093DD
:102E00006F01A0937001B093710131E030936201C2
:102E10000E945E0260936A0170936B0180936C0163
:102E200090936D01409258015092590160925A015D
:102E300070925B01C301B2010E94580710925401C5
:102E400010925501109256011092570160E070E007
:102E5000CB010E94FF000E945E02609350017093BC
:102E60005101809352019093530141E040934F01EF
:102E700083E080934E0198016A8D81E0CCCE992346
:102E800009F4FFCE209168013091690141E0612F82
:102E90001FCE823009F0F5CE80916001882359F071
:102EA00080916301811739F02091680130916901A7
:102EB00041E0612F88CE0E94570C51E050934D01A4
:102EC00010934C0180914B01882349F081E080935D
:102ED0004E0130E020E040E0612F86E09CCE86E0AD
:102EE000F6CF0E94310D14CD80917B01882309F427
:102EF0005BC00E94800C0E94460C809177019091EB
:102F00007801A0917901B0917A0129893A894B8998
:102F10005C89281B390B4A0B5B0BDA01C90184362B
:102F20009105A105B10588F049895A896B897C8989
:102F300040937701509378016093790170937A01FF
:102F40008091800181110E945F0A809173019091AC
:102F50007401A0917501B091760129893A894B8954
:102F60005C89281B390B4A0B5B0BDA01C9018436DB
:102F70009105A105B10570F049895A896B897C8951
:102F800040937301509374016093750170937601BF
:102F90000E946F0B80917201882309F47ACC109201
:102FA00072010E946F0B75CC0E94310DA4CF70E2AC
:102FB000C716D104E104F10409F44BCDA0F5A1E05A
:102FC000CA16D104E104F10409F409CDB0E1CB162D
:102FD000D104E104F10409F010CD883009F00ACDE4
:102FE00061E0C1010E94240D882309F403CD898189
:102FF000813009F01ECD1092470110924801809354
:103000004B0160E088E00E94DA0180914E01882344
:1030100019F08450833018F421E020934E0141E0F0
:1030200040937201EACCE0E4CE16D104E104F1044D
:1030300009F41ECEF2E0CF16F1E0DF06E104F10460
:1030400009F440CD20E3C216D104E104F10409F0F3
:10305000D4CC883009F0CECC89818F3F09F0CACC1E
:1030600061E0C1010E94240D882309F4C3CC1092B1
:1030700048010E94570C80914701882309F418CD1C
:1030800075E070934E01CBCF5058BB27AA270E9402
:103090005C180C94D6190E94C81938F00E94CF19F8
:1030A00020F039F49F3F19F426F40C94C5190EF45E
:1030B000E095E7FB0C94BF19E92F0E94E71958F33C
:1030C000BA17620773078407950720F079F4A6F50D
:1030D0000C94091A0EF4E0950B2EBA2FA02D0B01BB
:1030E000B90190010C01CA01A0011124FF27591B4D
:1030F00099F0593F50F4503E68F11A16F040A22F53
:10310000232F342F4427585FF3CF469537952795C3
:10311000A795F0405395C9F77EF41F16BA0B620BC2
:10312000730B840BBAF09150A1F0FF0FBB1F661F09
:10313000771F881FC2F70EC0BA0F621F731F841F4C
:1031400048F4879577956795B795F7959E3F08F072
:10315000B0CF9395880F08F09927EE0F9795879534
:1031600008950E949B1908F481E008950E94CA18EE
:103170000C94D6190E94CF1958F00E94C81940F03B
:1031800029F45F3F29F00C94BF1951110C940A1ACD
:103190000C94C5190E94E71968F39923B1F35523DC
:1031A00091F3951B550BBB27AA276217730784075A
:1031B00038F09F5F5F4F220F331F441FAA1FA9F3F0
:1031C00035D00E2E3AF0E0E832D091505040E695DE
:1031D000001CCAF72BD0FE2F29D0660F771F881F3F
:1031E000BB1F261737074807AB07B0E809F0BB0B32
:1031F000802DBF01FF2793585F4F3AF09E3F510546
:1032000078F00C94BF190C940A1A5F3FE4F3983ECF
:10321000D4F3869577956795B795F7959F5FC9F72E
:10322000880F911D9695879597F90895E1E0660FAF
:10323000771F881FBB1F621773078407BA0720F028
:10324000621B730B840BBA0BEE1F88F7E095089591
:103250000E942F196894B1110C940A1A08950E94C3
:10326000EF1988F09F5798F0B92F9927B751B0F010
:10327000E1F0660F771F881F991F1AF0BA95C9F7FA
:1032800014C0B13091F00E94091AB1E008950C9475
:10329000091A672F782F8827B85F39F0B93FCCF328
:1032A000869577956795B395D9F73EF49095809577
:1032B000709561957F4F8F4F9F4F0895E89409C097
:1032C00097FB3EF490958095709561957F4F8F4F59
:1032D0009F4F9923A9F0F92F96E9BB279395F6956F
:1032E000879577956795B795F111F8CFFAF4BB0FED
:1032F00011F460FF1BC06F5F7F4F8F4F9F4F16C051
:10330000882311F096E911C0772321F09EE8872FDA
:10331000762F05C0662371F096E8862F70E060E096
:103320002AF09A95660F771F881FDAF7880F96950F
:10333000879597F90895990F0008550FAA0BE0E8B3
:10334000FEEF16161706E807F907C0F01216130667
:10335000E407F50798F0621B730B840B950B39F4A7
:103360000A2661F0232B242B252B21F408950A260D
:1033700009F4A140A6958FEF811D811D089597F94D
:103380009F6780E870E060E008959FEF80EC08950B
:1033900000240A9416161706180609060895002434
:1033A0000A9412161306140605060895092E0394AE
:1033B000000C11F4882352F0BB0F40F4BF2B11F422
:1033C00060FF04C06F5F7F4F8F4F9F4F089557FD81
:1033D0009058440F551F59F05F3F71F04795880F83
:1033E00097FB991F61F09F3F79F08795089512161A
:1033F00013061406551FF2CF4695F1DF08C01616C6
:1034000017061806991FF1CF869571056105089476
:103410000895E894BB2766277727CB0197F908958D
:103420000E949B1908F48FEF08950E94281A0C94AB
:10343000D6190E94C81938F00E94CF1920F09523A0
:1034400011F00C94BF190C94C51911240C940A1A8C
:103450000E94E71970F3959FC1F3950F50E0551F37
:10346000629FF001729FBB27F00DB11D639FAA27D9
:10347000F00DB11DAA1F649F6627B00DA11D661F28
:10348000829F2227B00DA11D621F739FB00DA11D49
:10349000621F839FA00D611D221F749F3327A00D03
:1034A000611D231F849F600D211D822F762F6A2F9F
:1034B00011249F5750409AF0F1F088234AF0EE0F04
:1034C000FF1FBB1F661F771F881F91505040A9F731
:1034D0009E3F510580F00C94BF190C940A1A5F3F6F
:1034E000E4F3983ED4F3869577956795B795F7956D
:1034F000E7959F5FC1F7FE2B880F911D96958795E5
:1035000097F9089519F416F40C94C5190C94C81A77
:103510000E94EF19B8F39923C9F3B6F39F57550BDF
:1035200087FF0E94D61A0024A0E640EA9001805846
:103530005695979528F4805C660F771F881F20F0BA
:1035400026173707480730F4621B730B840B2029BA
:1035500031294A2BA69517940794202531254A270F
:1035600058F7660F771F881F20F026173707480780
:1035700030F4620B730B840B200D311D411DA0959F
:1035800081F7B901842F9158880F969587950895F2
:103590009F3F31F0915020F4879577956795B795C7
:1035A000880F911D9695879597F9089591505040F1
:1035B000660F771F881FD2F70895A1E21A2EAA1B63
:1035C000BB1BFD010DC0AA1FBB1FEE1FFF1FA217D3
:1035D000B307E407F50720F0A21BB30BE40BF50BD0
:1035E000661F771F881F991F1A9469F76095709559
:1035F000809590959B01AC01BD01CF010895052EEA
:1036000097FB1EF400940E94161B57FD07D00E94E2
:10361000DD1A07FC03D04EF40C94161B5095409510
:10362000309521953F4F4F4F5F4F0895909580956E
:10363000709561957F4F8F4F9F4F0895EE0FFF1F3D
:103640000590F491E02D09940E94551CA59F900DC2
:10365000B49F900DA49F800D911D1124089597FB98
:1036600057FF0C943F1B9F938F930E943F1B6E1B31
:103670007F0BAF91BF918A0B9B0B0895E894DF936A
:10368000CF93FC01DB010E94551C7F936F93E901EE
:103690009A01AC01BF93AF933F932F93DF010E9438
:1036A000551C26F46C1B7D0B820B930B9E01EB01CA
:1036B000FC010E94641CAF91BF912F913F910E9429
:1036C000641CBE01CF01F9012F913F91CF91DF9191
:1036D0000895689401C0E894F92FF12B12F00C942E
:1036E0009D1BA0E0B0E0E7E7FBE10C940F1C092E66
:1036F000059422F40E94F91B112392F4F0E80F269E
:10370000FFEFE094F09400951095B094C094D0949D
:10371000A194BF0ACF0ADF0AEF0AFF0A0F0B1F0BA3
:103720000E94A81B07FC0E94F91BCDB7DEB7ECE096
:103730000C942B1C689401C0E8948F929F92CF93B5
:10374000DF930E94A81BDF91CF919F908F900895E7
:1037500088249924F401E401B0E49F93AA279A15E0
:103760008B049C04ED05FE05CF05D007A10798F456
:10377000AD2FDC2FCF2FFE2FE92D982C892E982FDF
:10378000872F762F652F542F432F322F2227B850A3
:1037900031F7BF9127C01B2EBF91BB27220F331FCC
:1037A000441F551F661F771F881F991F881C991C6F
:1037B000EE1FFF1FCC1FDD1FAA1FBB1F8A149B0417
:1037C000EC05FD05CE05DF05A007B10748F08A1816
:1037D0009B08EC09FD09CE09DF09A00BB10B2160A4
:1037E0001A94E1F62EF49401AF01BE01CD01000C54
:1037F0000895609570958095909530954095509579
:1038000021953F4F4F4F5F4F6F4F7F4F8F4F9F4FD0
:1038100008952F923F924F925F926F927F928F9274
:103820009F92AF92BF92CF92DF92EF92FF920F934F
:103830001F93CF93DF93CDB7DEB7CA1BDB0B0FB659
:10384000F894DEBF0FBECDBF09942A883988488816
:103850005F846E847D848C849B84AA84B984C884AC
:10386000DF80EE80FD800C811B81AA81B981CE0FA3
:10387000D11D0FB6F894DEBF0FBECDBFED01089588
:103880002A193B094C095D096E097F09800B910BD0
:1038900008950024A7FD00942A173005400550051F
:1038A00060057005800590050895A29FB001B39F43
:1038B000C001A39F700D811D1124911DB29F700D39
:1038C000811D1124911D08950E94551C460F571FFC
:1038D000C81FD91F08F4319608950F931F93CF93F3
:1038E000DF938230910510F482E090E0E091820253
:1038F000F091830230E020E0B0E0A0E0309799F44E
:103900002115310509F44AC0281B390B2430310533
:10391000D8F58A819B816115710589F1FB0193833B
:103920008283FE0111C040815181028113814817B9
:103930005907E0F04817590799F4109761F012966B
:103940000C93129713961C933296CF01DF91CF916F
:103950001F910F9108950093820210938302F4CF78
:103960002115310551F04217530738F0A901DB0149
:103970009A01BD01DF01F801C1CFEF01F9CF9093AA
:10398000830280938202CDCFFE01E20FF31F819369
:1039900091932250310939832883D7CF2091800217
:1039A00030918102232B41F42091020130910301D7
:1039B0003093810220938002209100013091010117
:1039C0002115310541F42DB73EB7409104015091C6
:1039D0000501241B350BE0918002F0918102E21772
:1039E000F307A0F42E1B3F0B2817390778F0AC0122
:1039F0004E5F5F4F2417350748F04E0F5F1F5093FF
:103A0000810240938002819391939FCFF0E0E0E0A8
:103A10009CCFCF93DF930097E9F0FC01329713829C
:103A20001282A0918202B0918302ED0130E020E089
:103A30001097A1F420813181820F931F2091800281
:103A4000309181022817390709F061C0F093810293
:103A5000E0938002DF91CF910895EA01CE17DF074E
:103A6000E8F54A815B819E0141155105B1F7E901F5
:103A7000FB83EA8349915991C40FD51FEC17FD07C9
:103A800061F4808191810296840F951FE9019983E9
:103A90008883828193819B838A83F0E0E0E01296A1
:103AA0008D919C9113970097B9F52D913C911197A9
:103AB000CD010296820F931F2091800230918102E6
:103AC0002817390739F6309751F510928302109272
:103AD0008202B0938102A0938002BCCFD383C283C1
:103AE00040815181840F951FC817D90761F44E5F3B
:103AF0005F4F88819981480F591F518340838A8184
:103B00009B81938382832115310509F0B0CFF09317
:103B10008302E09382029ECFFD01DC01C0CF1382BD
:083B20001282D7CFF894FFCF09
:103B2800000084028000304050000000000A036A50
:103B38000297027203C802A602BA0200000000C679
:103B4800039203A707880FFF05270565051105DF01
:0E3B580004BE048A0469041304E4030D0A0089
:00000001FF
